{"contracts/Token.sol":{"HealthcareApp":{"abi":[{"inputs":[],"stateMutability":"nonpayable","type":"constructor"},{"anonymous":false,"inputs":[{"indexed":false,"internalType":"uint256","name":"appointmentId","type":"uint256"},{"indexed":false,"internalType":"address","name":"patientAddress","type":"address"},{"indexed":false,"internalType":"uint256","name":"doctorId","type":"uint256"},{"indexed":false,"internalType":"uint256","name":"date","type":"uint256"}],"name":"AppointmentRequested","type":"event"},{"anonymous":false,"inputs":[{"indexed":false,"internalType":"uint256","name":"appointmentId","type":"uint256"},{"indexed":false,"internalType":"enum HealthcareApp.AppointmentStatus","name":"status","type":"uint8"}],"name":"AppointmentStatusChanged","type":"event"},{"anonymous":false,"inputs":[{"indexed":false,"internalType":"address","name":"patientAddress","type":"address"},{"indexed":false,"internalType":"string","name":"name","type":"string"}],"name":"PatientRegistered","type":"event"},{"inputs":[],"name":"appointmentCount","outputs":[{"internalType":"uint256","name":"","type":"uint256"}],"stateMutability":"view","type":"function"},{"inputs":[{"internalType":"uint256","name":"","type":"uint256"}],"name":"appointments","outputs":[{"internalType":"uint256","name":"id","type":"uint256"},{"internalType":"address","name":"patientAddress","type":"address"},{"internalType":"uint256","name":"doctorId","type":"uint256"},{"internalType":"string","name":"ailment","type":"string"},{"internalType":"string","name":"description","type":"string"},{"internalType":"uint256","name":"date","type":"uint256"},{"internalType":"enum HealthcareApp.AppointmentStatus","name":"status","type":"uint8"}],"stateMutability":"view","type":"function"},{"inputs":[{"internalType":"uint256","name":"","type":"uint256"}],"name":"doctors","outputs":[{"internalType":"uint256","name":"id","type":"uint256"},{"internalType":"string","name":"name","type":"string"},{"internalType":"string","name":"specialization","type":"string"},{"internalType":"string","name":"experience","type":"string"},{"internalType":"string","name":"description","type":"string"},{"internalType":"string","name":"achievements","type":"string"},{"internalType":"address","name":"doctorAddress","type":"address"}],"stateMutability":"view","type":"function"},{"inputs":[{"internalType":"uint256","name":"_appointmentId","type":"uint256"}],"name":"getAppointmentStatus","outputs":[{"internalType":"enum HealthcareApp.AppointmentStatus","name":"","type":"uint8"}],"stateMutability":"view","type":"function"},{"inputs":[{"internalType":"uint256","name":"_doctorId","type":"uint256"}],"name":"getDoctorAppointments","outputs":[{"components":[{"internalType":"uint256","name":"id","type":"uint256"},{"internalType":"address","name":"patientAddress","type":"address"},{"internalType":"uint256","name":"doctorId","type":"uint256"},{"internalType":"string","name":"ailment","type":"string"},{"internalType":"string","name":"description","type":"string"},{"internalType":"uint256","name":"date","type":"uint256"},{"internalType":"enum HealthcareApp.AppointmentStatus","name":"status","type":"uint8"}],"internalType":"struct HealthcareApp.Appointment[]","name":"","type":"tuple[]"}],"stateMutability":"view","type":"function"},{"inputs":[],"name":"getPatientAppointments","outputs":[{"components":[{"internalType":"uint256","name":"id","type":"uint256"},{"internalType":"address","name":"patientAddress","type":"address"},{"internalType":"uint256","name":"doctorId","type":"uint256"},{"internalType":"string","name":"ailment","type":"string"},{"internalType":"string","name":"description","type":"string"},{"internalType":"uint256","name":"date","type":"uint256"},{"internalType":"enum HealthcareApp.AppointmentStatus","name":"status","type":"uint8"}],"internalType":"struct HealthcareApp.Appointment[]","name":"","type":"tuple[]"}],"stateMutability":"view","type":"function"},{"inputs":[{"internalType":"address","name":"","type":"address"}],"name":"patients","outputs":[{"internalType":"address","name":"patientAddress","type":"address"},{"internalType":"string","name":"name","type":"string"},{"internalType":"string","name":"phone","type":"string"}],"stateMutability":"view","type":"function"},{"inputs":[{"internalType":"string","name":"_name","type":"string"},{"internalType":"string","name":"_phone","type":"string"}],"name":"registerPatient","outputs":[],"stateMutability":"nonpayable","type":"function"},{"inputs":[{"internalType":"uint256","name":"_doctorId","type":"uint256"},{"internalType":"string","name":"_ailment","type":"string"},{"internalType":"string","name":"_description","type":"string"},{"internalType":"uint256","name":"_date","type":"uint256"}],"name":"requestAppointment","outputs":[],"stateMutability":"nonpayable","type":"function"},{"inputs":[{"internalType":"uint256","name":"_appointmentId","type":"uint256"},{"internalType":"enum HealthcareApp.AppointmentStatus","name":"_status","type":"uint8"}],"name":"updateAppointmentStatus","outputs":[],"stateMutability":"nonpayable","type":"function"}],"evm":{"bytecode":{"linkReferences":{},"object":"60806040526000805534801561001457600080fd5b506040518060e00160405280600181526020016040518060400160405280600c81526020017f44722e204a6f686e20446f65000000000000000000000000000000000000000081525081526020016040518060400160405280600a81526020017f50737963686f6c6f67790000000000000000000000000000000000000000000081525081526020016040518060400160405280601681526020017f313020796561727320696e2050737963686f6c6f67790000000000000000000081525081526020016040518060600160405280602c8152602001612b4c602c913981526020016040518060600160405280602e8152602001612a77602e913981526020013373ffffffffffffffffffffffffffffffffffffffff1681525060016000600181526020019081526020016000206000820151816000015560208201518160010190816101619190610837565b5060408201518160020190816101779190610837565b50606082015181600301908161018d9190610837565b5060808201518160040190816101a39190610837565b5060a08201518160050190816101b99190610837565b5060c08201518160060160006101000a81548173ffffffffffffffffffffffffffffffffffffffff021916908373ffffffffffffffffffffffffffffffffffffffff1602179055509050506040518060e00160405280600281526020016040518060400160405280600f81526020017f44722e20536172616820536d697468000000000000000000000000000000000081525081526020016040518060400160405280600b81526020017f4f7274686f70656469637300000000000000000000000000000000000000000081525081526020016040518060400160405280601681526020017f3820796561727320696e204f7274686f7065646963730000000000000000000081525081526020016040518060600160405280602e8152602001612b1e602e91398152602001604051806060016040528060368152602001612a416036913981526020013373ffffffffffffffffffffffffffffffffffffffff1681525060016000600281526020019081526020016000206000820151816000015560208201518160010190816103509190610837565b5060408201518160020190816103669190610837565b50606082015181600301908161037c9190610837565b5060808201518160040190816103929190610837565b5060a08201518160050190816103a89190610837565b5060c08201518160060160006101000a81548173ffffffffffffffffffffffffffffffffffffffff021916908373ffffffffffffffffffffffffffffffffffffffff1602179055509050506040518060e00160405280600381526020016040518060400160405280600f81526020017f44722e204b6576696e2042726f776e000000000000000000000000000000000081525081526020016040518060400160405280600981526020017f4e6575726f6c6f6779000000000000000000000000000000000000000000000081525081526020016040518060400160405280601581526020017f313220796561727320696e204e6575726f6c6f677900000000000000000000008152508152602001604051806060016040528060408152602001612ade604091398152602001604051806060016040528060398152602001612aa56039913981526020013373ffffffffffffffffffffffffffffffffffffffff16815250600160006003815260200190815260200160002060008201518160000155602082015181600101908161053f9190610837565b5060408201518160020190816105559190610837565b50606082015181600301908161056b9190610837565b5060808201518160040190816105819190610837565b5060a08201518160050190816105979190610837565b5060c08201518160060160006101000a81548173ffffffffffffffffffffffffffffffffffffffff021916908373ffffffffffffffffffffffffffffffffffffffff160217905550905050610909565b600081519050919050565b7f4e487b7100000000000000000000000000000000000000000000000000000000600052604160045260246000fd5b7f4e487b7100000000000000000000000000000000000000000000000000000000600052602260045260246000fd5b6000600282049050600182168061066857607f821691505b60208210810361067b5761067a610621565b5b50919050565b60008190508160005260206000209050919050565b60006020601f8301049050919050565b600082821b905092915050565b6000600883026106e37fffffffffffffffffffffffffffffffffffffffffffffffffffffffffffffffff826106a6565b6106ed86836106a6565b95508019841693508086168417925050509392505050565b6000819050919050565b6000819050919050565b600061073461072f61072a84610705565b61070f565b610705565b9050919050565b6000819050919050565b61074e83610719565b61076261075a8261073b565b8484546106b3565b825550505050565b600090565b61077761076a565b610782818484610745565b505050565b5b818110156107a65761079b60008261076f565b600181019050610788565b5050565b601f8211156107eb576107bc81610681565b6107c584610696565b810160208510156107d4578190505b6107e86107e085610696565b830182610787565b50505b505050565b600082821c905092915050565b600061080e600019846008026107f0565b1980831691505092915050565b600061082783836107fd565b9150826002028217905092915050565b610840826105e7565b67ffffffffffffffff811115610859576108586105f2565b5b6108638254610650565b61086e8282856107aa565b600060209050601f8311600181146108a1576000841561088f578287015190505b610899858261081b565b865550610901565b601f1984166108af86610681565b60005b828110156108d7578489015182556001820191506020850194506020810190506108b2565b868310156108f457848901516108f0601f8916826107fd565b8355505b6001600288020188555050505b505050505050565b612129806109186000396000f3fe608060405234801561001057600080fd5b506004361061009e5760003560e01c8063a00c512711610066578063a00c512714610179578063a23ba70b146101a9578063ba173c88146101c7578063e4c13535146101f7578063eebc3fb2146102135761009e565b8063068a423b146100a35780630869cfbc146100bf57806312dc9013146100f15780636efb1b841461012757806380911fa41461015d575b600080fd5b6100bd60048036038101906100b89190611408565b610231565b005b6100d960048036038101906100d491906114a6565b6102b2565b6040516100e893929190611572565b60405180910390f35b61010b600480360381019061010691906115b7565b61040c565b60405161011e979695949392919061166a565b60405180910390f35b610141600480360381019061013c91906115b7565b61058b565b60405161015497969594939291906116e7565b60405180910390f35b610177600480360381019061017291906118ae565b610895565b005b610193600480360381019061018e91906115b7565b6109b8565b6040516101a09190611b02565b60405180910390f35b6101b1610cce565b6040516101be9190611b02565b60405180910390f35b6101e160048036038101906101dc91906115b7565b61107a565b6040516101ee9190611b24565b60405180910390f35b610211600480360381019061020c9190611b3f565b6110f7565b005b61021b61132e565b6040516102289190611bde565b60405180910390f35b6000600360008481526020019081526020016000209050818160060160006101000a81548160ff0219169083600281111561026f5761026e6115f3565b5b02179055507f2d344bca0c605026bef7524e939b12add7fb8a8a5cd5135cbc8361be14ec484383836040516102a5929190611bf9565b60405180910390a1505050565b60026020528060005260406000206000915090508060000160009054906101000a900473ffffffffffffffffffffffffffffffffffffffff16908060010180546102fb90611c51565b80601f016020809104026020016040519081016040528092919081815260200182805461032790611c51565b80156103745780601f1061034957610100808354040283529160200191610374565b820191906000526020600020905b81548152906001019060200180831161035757829003601f168201915b50505050509080600201805461038990611c51565b80601f01602080910402602001604051908101604052809291908181526020018280546103b590611c51565b80156104025780601f106103d757610100808354040283529160200191610402565b820191906000526020600020905b8154815290600101906020018083116103e557829003601f168201915b5050505050905083565b60036020528060005260406000206000915090508060000154908060010160009054906101000a900473ffffffffffffffffffffffffffffffffffffffff169080600201549080600301805461046190611c51565b80601f016020809104026020016040519081016040528092919081815260200182805461048d90611c51565b80156104da5780601f106104af576101008083540402835291602001916104da565b820191906000526020600020905b8154815290600101906020018083116104bd57829003601f168201915b5050505050908060040180546104ef90611c51565b80601f016020809104026020016040519081016040528092919081815260200182805461051b90611c51565b80156105685780601f1061053d57610100808354040283529160200191610568565b820191906000526020600020905b81548152906001019060200180831161054b57829003601f168201915b5050505050908060050154908060060160009054906101000a900460ff16905087565b60016020528060005260406000206000915090508060000154908060010180546105b490611c51565b80601f01602080910402602001604051908101604052809291908181526020018280546105e090611c51565b801561062d5780601f106106025761010080835404028352916020019161062d565b820191906000526020600020905b81548152906001019060200180831161061057829003601f168201915b50505050509080600201805461064290611c51565b80601f016020809104026020016040519081016040528092919081815260200182805461066e90611c51565b80156106bb5780601f10610690576101008083540402835291602001916106bb565b820191906000526020600020905b81548152906001019060200180831161069e57829003601f168201915b5050505050908060030180546106d090611c51565b80601f01602080910402602001604051908101604052809291908181526020018280546106fc90611c51565b80156107495780601f1061071e57610100808354040283529160200191610749565b820191906000526020600020905b81548152906001019060200180831161072c57829003601f168201915b50505050509080600401805461075e90611c51565b80601f016020809104026020016040519081016040528092919081815260200182805461078a90611c51565b80156107d75780601f106107ac576101008083540402835291602001916107d7565b820191906000526020600020905b8154815290600101906020018083116107ba57829003601f168201915b5050505050908060050180546107ec90611c51565b80601f016020809104026020016040519081016040528092919081815260200182805461081890611c51565b80156108655780601f1061083a57610100808354040283529160200191610865565b820191906000526020600020905b81548152906001019060200180831161084857829003601f168201915b5050505050908060060160009054906101000a900473ffffffffffffffffffffffffffffffffffffffff16905087565b60405180606001604052803373ffffffffffffffffffffffffffffffffffffffff16815260200183815260200182815250600260003373ffffffffffffffffffffffffffffffffffffffff1673ffffffffffffffffffffffffffffffffffffffff16815260200190815260200160002060008201518160000160006101000a81548173ffffffffffffffffffffffffffffffffffffffff021916908373ffffffffffffffffffffffffffffffffffffffff16021790555060208201518160010190816109619190611e2e565b5060408201518160020190816109779190611e2e565b509050507fc85b128388b9c331a2a5485dce4cd0f3db9f7c279d327ce95d6d39d6c94644c733836040516109ac929190611f00565b60405180910390a15050565b6060600080600190505b6000548111610a0a57836003600083815260200190815260200160002060020154036109f75781806109f390611f5f565b9250505b8080610a0290611f5f565b9150506109c2565b5060008167ffffffffffffffff811115610a2757610a26611783565b5b604051908082528060200260200182016040528015610a6057816020015b610a4d611334565b815260200190600190039081610a455790505b509050600080600190505b6000548111610cc25785600360008381526020019081526020016000206002015403610caf57600360008281526020019081526020016000206040518060e0016040529081600082015481526020016001820160009054906101000a900473ffffffffffffffffffffffffffffffffffffffff1673ffffffffffffffffffffffffffffffffffffffff1673ffffffffffffffffffffffffffffffffffffffff16815260200160028201548152602001600382018054610b2990611c51565b80601f0160208091040260200160405190810160405280929190818152602001828054610b5590611c51565b8015610ba25780601f10610b7757610100808354040283529160200191610ba2565b820191906000526020600020905b815481529060010190602001808311610b8557829003601f168201915b50505050508152602001600482018054610bbb90611c51565b80601f0160208091040260200160405190810160405280929190818152602001828054610be790611c51565b8015610c345780601f10610c0957610100808354040283529160200191610c34565b820191906000526020600020905b815481529060010190602001808311610c1757829003601f168201915b50505050508152602001600582015481526020016006820160009054906101000a900460ff166002811115610c6c57610c6b6115f3565b5b6002811115610c7e57610c7d6115f3565b5b81525050838381518110610c9557610c94611fa7565b5b60200260200101819052508180610cab90611f5f565b9250505b8080610cba90611f5f565b915050610a6b565b50819350505050919050565b6060600080600190505b6000548111610d6c573373ffffffffffffffffffffffffffffffffffffffff166003600083815260200190815260200160002060010160009054906101000a900473ffffffffffffffffffffffffffffffffffffffff1673ffffffffffffffffffffffffffffffffffffffff1603610d59578180610d5590611f5f565b9250505b8080610d6490611f5f565b915050610cd8565b5060008167ffffffffffffffff811115610d8957610d88611783565b5b604051908082528060200260200182016040528015610dc257816020015b610daf611334565b815260200190600190039081610da75790505b509050600080600190505b6000548111611070573373ffffffffffffffffffffffffffffffffffffffff166003600083815260200190815260200160002060010160009054906101000a900473ffffffffffffffffffffffffffffffffffffffff1673ffffffffffffffffffffffffffffffffffffffff160361105d57600360008281526020019081526020016000206040518060e0016040529081600082015481526020016001820160009054906101000a900473ffffffffffffffffffffffffffffffffffffffff1673ffffffffffffffffffffffffffffffffffffffff1673ffffffffffffffffffffffffffffffffffffffff16815260200160028201548152602001600382018054610ed790611c51565b80601f0160208091040260200160405190810160405280929190818152602001828054610f0390611c51565b8015610f505780601f10610f2557610100808354040283529160200191610f50565b820191906000526020600020905b815481529060010190602001808311610f3357829003601f168201915b50505050508152602001600482018054610f6990611c51565b80601f0160208091040260200160405190810160405280929190818152602001828054610f9590611c51565b8015610fe25780601f10610fb757610100808354040283529160200191610fe2565b820191906000526020600020905b815481529060010190602001808311610fc557829003601f168201915b50505050508152602001600582015481526020016006820160009054906101000a900460ff16600281111561101a576110196115f3565b5b600281111561102c5761102b6115f3565b5b8152505083838151811061104357611042611fa7565b5b6020026020010181905250818061105990611f5f565b9250505b808061106890611f5f565b915050610dcd565b5081935050505090565b6000808211801561108d57506000548211155b6110cc576040517f08c379a00000000000000000000000000000000000000000000000000000000081526004016110c390612022565b60405180910390fd5b6003600083815260200190815260200160002060060160009054906101000a900460ff169050919050565b600073ffffffffffffffffffffffffffffffffffffffff166001600086815260200190815260200160002060060160009054906101000a900473ffffffffffffffffffffffffffffffffffffffff1673ffffffffffffffffffffffffffffffffffffffff160361119c576040517f08c379a00000000000000000000000000000000000000000000000000000000081526004016111939061208e565b60405180910390fd5b6000808154809291906111ae90611f5f565b91905055506040518060e0016040528060005481526020013373ffffffffffffffffffffffffffffffffffffffff1681526020018581526020018481526020018381526020018281526020016000600281111561120e5761120d6115f3565b5b81525060036000805481526020019081526020016000206000820151816000015560208201518160010160006101000a81548173ffffffffffffffffffffffffffffffffffffffff021916908373ffffffffffffffffffffffffffffffffffffffff1602179055506040820151816002015560608201518160030190816112959190611e2e565b5060808201518160040190816112ab9190611e2e565b5060a0820151816005015560c08201518160060160006101000a81548160ff021916908360028111156112e1576112e06115f3565b5b02179055509050507ff69f1c2ac0e4149c0eee1fd99397e28af68bd7e2b0c8a1d3a4a72e52c60086c760005433868460405161132094939291906120ae565b60405180910390a150505050565b60005481565b6040518060e0016040528060008152602001600073ffffffffffffffffffffffffffffffffffffffff1681526020016000815260200160608152602001606081526020016000815260200160006002811115611393576113926115f3565b5b81525090565b6000604051905090565b600080fd5b600080fd5b6000819050919050565b6113c0816113ad565b81146113cb57600080fd5b50565b6000813590506113dd816113b7565b92915050565b600381106113f057600080fd5b50565b600081359050611402816113e3565b92915050565b6000806040838503121561141f5761141e6113a3565b5b600061142d858286016113ce565b925050602061143e858286016113f3565b9150509250929050565b600073ffffffffffffffffffffffffffffffffffffffff82169050919050565b600061147382611448565b9050919050565b61148381611468565b811461148e57600080fd5b50565b6000813590506114a08161147a565b92915050565b6000602082840312156114bc576114bb6113a3565b5b60006114ca84828501611491565b91505092915050565b6114dc81611468565b82525050565b600081519050919050565b600082825260208201905092915050565b60005b8381101561151c578082015181840152602081019050611501565b60008484015250505050565b6000601f19601f8301169050919050565b6000611544826114e2565b61154e81856114ed565b935061155e8185602086016114fe565b61156781611528565b840191505092915050565b600060608201905061158760008301866114d3565b81810360208301526115998185611539565b905081810360408301526115ad8184611539565b9050949350505050565b6000602082840312156115cd576115cc6113a3565b5b60006115db848285016113ce565b91505092915050565b6115ed816113ad565b82525050565b7f4e487b7100000000000000000000000000000000000000000000000000000000600052602160045260246000fd5b60038110611633576116326115f3565b5b50565b600081905061164482611622565b919050565b600061165482611636565b9050919050565b61166481611649565b82525050565b600060e08201905061167f600083018a6115e4565b61168c60208301896114d3565b61169960408301886115e4565b81810360608301526116ab8187611539565b905081810360808301526116bf8186611539565b90506116ce60a08301856115e4565b6116db60c083018461165b565b98975050505050505050565b600060e0820190506116fc600083018a6115e4565b818103602083015261170e8189611539565b905081810360408301526117228188611539565b905081810360608301526117368187611539565b9050818103608083015261174a8186611539565b905081810360a083015261175e8185611539565b905061176d60c08301846114d3565b98975050505050505050565b600080fd5b600080fd5b7f4e487b7100000000000000000000000000000000000000000000000000000000600052604160045260246000fd5b6117bb82611528565b810181811067ffffffffffffffff821117156117da576117d9611783565b5b80604052505050565b60006117ed611399565b90506117f982826117b2565b919050565b600067ffffffffffffffff82111561181957611818611783565b5b61182282611528565b9050602081019050919050565b82818337600083830152505050565b600061185161184c846117fe565b6117e3565b90508281526020810184848401111561186d5761186c61177e565b5b61187884828561182f565b509392505050565b600082601f83011261189557611894611779565b5b81356118a584826020860161183e565b91505092915050565b600080604083850312156118c5576118c46113a3565b5b600083013567ffffffffffffffff8111156118e3576118e26113a8565b5b6118ef85828601611880565b925050602083013567ffffffffffffffff8111156119105761190f6113a8565b5b61191c85828601611880565b9150509250929050565b600081519050919050565b600082825260208201905092915050565b6000819050602082019050919050565b61195b816113ad565b82525050565b61196a81611468565b82525050565b600082825260208201905092915050565b600061198c826114e2565b6119968185611970565b93506119a68185602086016114fe565b6119af81611528565b840191505092915050565b6119c381611649565b82525050565b600060e0830160008301516119e16000860182611952565b5060208301516119f46020860182611961565b506040830151611a076040860182611952565b5060608301518482036060860152611a1f8282611981565b91505060808301518482036080860152611a398282611981565b91505060a0830151611a4e60a0860182611952565b5060c0830151611a6160c08601826119ba565b508091505092915050565b6000611a7883836119c9565b905092915050565b6000602082019050919050565b6000611a9882611926565b611aa28185611931565b935083602082028501611ab485611942565b8060005b85811015611af05784840389528151611ad18582611a6c565b9450611adc83611a80565b925060208a01995050600181019050611ab8565b50829750879550505050505092915050565b60006020820190508181036000830152611b1c8184611a8d565b905092915050565b6000602082019050611b39600083018461165b565b92915050565b60008060008060808587031215611b5957611b586113a3565b5b6000611b67878288016113ce565b945050602085013567ffffffffffffffff811115611b8857611b876113a8565b5b611b9487828801611880565b935050604085013567ffffffffffffffff811115611bb557611bb46113a8565b5b611bc187828801611880565b9250506060611bd2878288016113ce565b91505092959194509250565b6000602082019050611bf360008301846115e4565b92915050565b6000604082019050611c0e60008301856115e4565b611c1b602083018461165b565b9392505050565b7f4e487b7100000000000000000000000000000000000000000000000000000000600052602260045260246000fd5b60006002820490506001821680611c6957607f821691505b602082108103611c7c57611c7b611c22565b5b50919050565b60008190508160005260206000209050919050565b60006020601f8301049050919050565b600082821b905092915050565b600060088302611ce47fffffffffffffffffffffffffffffffffffffffffffffffffffffffffffffffff82611ca7565b611cee8683611ca7565b95508019841693508086168417925050509392505050565b6000819050919050565b6000611d2b611d26611d21846113ad565b611d06565b6113ad565b9050919050565b6000819050919050565b611d4583611d10565b611d59611d5182611d32565b848454611cb4565b825550505050565b600090565b611d6e611d61565b611d79818484611d3c565b505050565b5b81811015611d9d57611d92600082611d66565b600181019050611d7f565b5050565b601f821115611de257611db381611c82565b611dbc84611c97565b81016020851015611dcb578190505b611ddf611dd785611c97565b830182611d7e565b50505b505050565b600082821c905092915050565b6000611e0560001984600802611de7565b1980831691505092915050565b6000611e1e8383611df4565b9150826002028217905092915050565b611e37826114e2565b67ffffffffffffffff811115611e5057611e4f611783565b5b611e5a8254611c51565b611e65828285611da1565b600060209050601f831160018114611e985760008415611e86578287015190505b611e908582611e12565b865550611ef8565b601f198416611ea686611c82565b60005b82811015611ece57848901518255600182019150602085019450602081019050611ea9565b86831015611eeb5784890151611ee7601f891682611df4565b8355505b6001600288020188555050505b505050505050565b6000604082019050611f1560008301856114d3565b8181036020830152611f278184611539565b90509392505050565b7f4e487b7100000000000000000000000000000000000000000000000000000000600052601160045260246000fd5b6000611f6a826113ad565b91507fffffffffffffffffffffffffffffffffffffffffffffffffffffffffffffffff8203611f9c57611f9b611f30565b5b600182019050919050565b7f4e487b7100000000000000000000000000000000000000000000000000000000600052603260045260246000fd5b7f496e76616c6964206170706f696e746d656e7420494400000000000000000000600082015250565b600061200c6016836114ed565b915061201782611fd6565b602082019050919050565b6000602082019050818103600083015261203b81611fff565b9050919050565b7f446f63746f7220646f6573206e6f742065786973740000000000000000000000600082015250565b60006120786015836114ed565b915061208382612042565b602082019050919050565b600060208201905081810360008301526120a78161206b565b9050919050565b60006080820190506120c360008301876115e4565b6120d060208301866114d3565b6120dd60408301856115e4565b6120ea60608301846115e4565b9594505050505056fea26469706673582212207601aea8f5a2e425312af547bd101c9527626ae8638b27300c9e2e98bd44ad7564736f6c634300081b0033446576656c6f70656420696e6e6f76617469766520746563686e697175657320696e206f7274686f706564696320737572676572792e5075626c697368656420323020726573656172636820706170657273206f6e206d656e74616c206865616c74682e5075626c69736865642067726f756e64627265616b696e67207265736561726368206f6e20416c7a6865696d6572277320646973656173652e45787065727420696e206e6575726f6c6f676963616c206469736f726465727320616e64206e6575726f646567656e657261746976652064697365617365732e45787065727420696e206f7274686f70656469632073757267657269657320616e642074726561746d656e74732e5370656369616c697a657320696e206d656e74616c206865616c746820616e6420636f756e73656c696e672e","opcodes":"PUSH1 0x80 PUSH1 0x40 MSTORE PUSH1 0x0 DUP1 SSTORE CALLVALUE DUP1 ISZERO PUSH2 0x14 JUMPI PUSH1 0x0 DUP1 REVERT JUMPDEST POP PUSH1 0x40 MLOAD DUP1 PUSH1 0xE0 ADD PUSH1 0x40 MSTORE DUP1 PUSH1 0x1 DUP2 MSTORE PUSH1 0x20 ADD PUSH1 0x40 MLOAD DUP1 PUSH1 0x40 ADD PUSH1 0x40 MSTORE DUP1 PUSH1 0xC DUP2 MSTORE PUSH1 0x20 ADD PUSH32 0x44722E204A6F686E20446F650000000000000000000000000000000000000000 DUP2 MSTORE POP DUP2 MSTORE PUSH1 0x20 ADD PUSH1 0x40 MLOAD DUP1 PUSH1 0x40 ADD PUSH1 0x40 MSTORE DUP1 PUSH1 0xA DUP2 MSTORE PUSH1 0x20 ADD PUSH32 0x50737963686F6C6F677900000000000000000000000000000000000000000000 DUP2 MSTORE POP DUP2 MSTORE PUSH1 0x20 ADD PUSH1 0x40 MLOAD DUP1 PUSH1 0x40 ADD PUSH1 0x40 MSTORE DUP1 PUSH1 0x16 DUP2 MSTORE PUSH1 0x20 ADD PUSH32 0x313020796561727320696E2050737963686F6C6F677900000000000000000000 DUP2 MSTORE POP DUP2 MSTORE PUSH1 0x20 ADD PUSH1 0x40 MLOAD DUP1 PUSH1 0x60 ADD PUSH1 0x40 MSTORE DUP1 PUSH1 0x2C DUP2 MSTORE PUSH1 0x20 ADD PUSH2 0x2B4C PUSH1 0x2C SWAP2 CODECOPY DUP2 MSTORE PUSH1 0x20 ADD PUSH1 0x40 MLOAD DUP1 PUSH1 0x60 ADD PUSH1 0x40 MSTORE DUP1 PUSH1 0x2E DUP2 MSTORE PUSH1 0x20 ADD PUSH2 0x2A77 PUSH1 0x2E SWAP2 CODECOPY DUP2 MSTORE PUSH1 0x20 ADD CALLER PUSH20 0xFFFFFFFFFFFFFFFFFFFFFFFFFFFFFFFFFFFFFFFF AND DUP2 MSTORE POP PUSH1 0x1 PUSH1 0x0 PUSH1 0x1 DUP2 MSTORE PUSH1 0x20 ADD SWAP1 DUP2 MSTORE PUSH1 0x20 ADD PUSH1 0x0 KECCAK256 PUSH1 0x0 DUP3 ADD MLOAD DUP2 PUSH1 0x0 ADD SSTORE PUSH1 0x20 DUP3 ADD MLOAD DUP2 PUSH1 0x1 ADD SWAP1 DUP2 PUSH2 0x161 SWAP2 SWAP1 PUSH2 0x837 JUMP JUMPDEST POP PUSH1 0x40 DUP3 ADD MLOAD DUP2 PUSH1 0x2 ADD SWAP1 DUP2 PUSH2 0x177 SWAP2 SWAP1 PUSH2 0x837 JUMP JUMPDEST POP PUSH1 0x60 DUP3 ADD MLOAD DUP2 PUSH1 0x3 ADD SWAP1 DUP2 PUSH2 0x18D SWAP2 SWAP1 PUSH2 0x837 JUMP JUMPDEST POP PUSH1 0x80 DUP3 ADD MLOAD DUP2 PUSH1 0x4 ADD SWAP1 DUP2 PUSH2 0x1A3 SWAP2 SWAP1 PUSH2 0x837 JUMP JUMPDEST POP PUSH1 0xA0 DUP3 ADD MLOAD DUP2 PUSH1 0x5 ADD SWAP1 DUP2 PUSH2 0x1B9 SWAP2 SWAP1 PUSH2 0x837 JUMP JUMPDEST POP PUSH1 0xC0 DUP3 ADD MLOAD DUP2 PUSH1 0x6 ADD PUSH1 0x0 PUSH2 0x100 EXP DUP2 SLOAD DUP2 PUSH20 0xFFFFFFFFFFFFFFFFFFFFFFFFFFFFFFFFFFFFFFFF MUL NOT AND SWAP1 DUP4 PUSH20 0xFFFFFFFFFFFFFFFFFFFFFFFFFFFFFFFFFFFFFFFF AND MUL OR SWAP1 SSTORE POP SWAP1 POP POP PUSH1 0x40 MLOAD DUP1 PUSH1 0xE0 ADD PUSH1 0x40 MSTORE DUP1 PUSH1 0x2 DUP2 MSTORE PUSH1 0x20 ADD PUSH1 0x40 MLOAD DUP1 PUSH1 0x40 ADD PUSH1 0x40 MSTORE DUP1 PUSH1 0xF DUP2 MSTORE PUSH1 0x20 ADD PUSH32 0x44722E20536172616820536D6974680000000000000000000000000000000000 DUP2 MSTORE POP DUP2 MSTORE PUSH1 0x20 ADD PUSH1 0x40 MLOAD DUP1 PUSH1 0x40 ADD PUSH1 0x40 MSTORE DUP1 PUSH1 0xB DUP2 MSTORE PUSH1 0x20 ADD PUSH32 0x4F7274686F706564696373000000000000000000000000000000000000000000 DUP2 MSTORE POP DUP2 MSTORE PUSH1 0x20 ADD PUSH1 0x40 MLOAD DUP1 PUSH1 0x40 ADD PUSH1 0x40 MSTORE DUP1 PUSH1 0x16 DUP2 MSTORE PUSH1 0x20 ADD PUSH32 0x3820796561727320696E204F7274686F70656469637300000000000000000000 DUP2 MSTORE POP DUP2 MSTORE PUSH1 0x20 ADD PUSH1 0x40 MLOAD DUP1 PUSH1 0x60 ADD PUSH1 0x40 MSTORE DUP1 PUSH1 0x2E DUP2 MSTORE PUSH1 0x20 ADD PUSH2 0x2B1E PUSH1 0x2E SWAP2 CODECOPY DUP2 MSTORE PUSH1 0x20 ADD PUSH1 0x40 MLOAD DUP1 PUSH1 0x60 ADD PUSH1 0x40 MSTORE DUP1 PUSH1 0x36 DUP2 MSTORE PUSH1 0x20 ADD PUSH2 0x2A41 PUSH1 0x36 SWAP2 CODECOPY DUP2 MSTORE PUSH1 0x20 ADD CALLER PUSH20 0xFFFFFFFFFFFFFFFFFFFFFFFFFFFFFFFFFFFFFFFF AND DUP2 MSTORE POP PUSH1 0x1 PUSH1 0x0 PUSH1 0x2 DUP2 MSTORE PUSH1 0x20 ADD SWAP1 DUP2 MSTORE PUSH1 0x20 ADD PUSH1 0x0 KECCAK256 PUSH1 0x0 DUP3 ADD MLOAD DUP2 PUSH1 0x0 ADD SSTORE PUSH1 0x20 DUP3 ADD MLOAD DUP2 PUSH1 0x1 ADD SWAP1 DUP2 PUSH2 0x350 SWAP2 SWAP1 PUSH2 0x837 JUMP JUMPDEST POP PUSH1 0x40 DUP3 ADD MLOAD DUP2 PUSH1 0x2 ADD SWAP1 DUP2 PUSH2 0x366 SWAP2 SWAP1 PUSH2 0x837 JUMP JUMPDEST POP PUSH1 0x60 DUP3 ADD MLOAD DUP2 PUSH1 0x3 ADD SWAP1 DUP2 PUSH2 0x37C SWAP2 SWAP1 PUSH2 0x837 JUMP JUMPDEST POP PUSH1 0x80 DUP3 ADD MLOAD DUP2 PUSH1 0x4 ADD SWAP1 DUP2 PUSH2 0x392 SWAP2 SWAP1 PUSH2 0x837 JUMP JUMPDEST POP PUSH1 0xA0 DUP3 ADD MLOAD DUP2 PUSH1 0x5 ADD SWAP1 DUP2 PUSH2 0x3A8 SWAP2 SWAP1 PUSH2 0x837 JUMP JUMPDEST POP PUSH1 0xC0 DUP3 ADD MLOAD DUP2 PUSH1 0x6 ADD PUSH1 0x0 PUSH2 0x100 EXP DUP2 SLOAD DUP2 PUSH20 0xFFFFFFFFFFFFFFFFFFFFFFFFFFFFFFFFFFFFFFFF MUL NOT AND SWAP1 DUP4 PUSH20 0xFFFFFFFFFFFFFFFFFFFFFFFFFFFFFFFFFFFFFFFF AND MUL OR SWAP1 SSTORE POP SWAP1 POP POP PUSH1 0x40 MLOAD DUP1 PUSH1 0xE0 ADD PUSH1 0x40 MSTORE DUP1 PUSH1 0x3 DUP2 MSTORE PUSH1 0x20 ADD PUSH1 0x40 MLOAD DUP1 PUSH1 0x40 ADD PUSH1 0x40 MSTORE DUP1 PUSH1 0xF DUP2 MSTORE PUSH1 0x20 ADD PUSH32 0x44722E204B6576696E2042726F776E0000000000000000000000000000000000 DUP2 MSTORE POP DUP2 MSTORE PUSH1 0x20 ADD PUSH1 0x40 MLOAD DUP1 PUSH1 0x40 ADD PUSH1 0x40 MSTORE DUP1 PUSH1 0x9 DUP2 MSTORE PUSH1 0x20 ADD PUSH32 0x4E6575726F6C6F67790000000000000000000000000000000000000000000000 DUP2 MSTORE POP DUP2 MSTORE PUSH1 0x20 ADD PUSH1 0x40 MLOAD DUP1 PUSH1 0x40 ADD PUSH1 0x40 MSTORE DUP1 PUSH1 0x15 DUP2 MSTORE PUSH1 0x20 ADD PUSH32 0x313220796561727320696E204E6575726F6C6F67790000000000000000000000 DUP2 MSTORE POP DUP2 MSTORE PUSH1 0x20 ADD PUSH1 0x40 MLOAD DUP1 PUSH1 0x60 ADD PUSH1 0x40 MSTORE DUP1 PUSH1 0x40 DUP2 MSTORE PUSH1 0x20 ADD PUSH2 0x2ADE PUSH1 0x40 SWAP2 CODECOPY DUP2 MSTORE PUSH1 0x20 ADD PUSH1 0x40 MLOAD DUP1 PUSH1 0x60 ADD PUSH1 0x40 MSTORE DUP1 PUSH1 0x39 DUP2 MSTORE PUSH1 0x20 ADD PUSH2 0x2AA5 PUSH1 0x39 SWAP2 CODECOPY DUP2 MSTORE PUSH1 0x20 ADD CALLER PUSH20 0xFFFFFFFFFFFFFFFFFFFFFFFFFFFFFFFFFFFFFFFF AND DUP2 MSTORE POP PUSH1 0x1 PUSH1 0x0 PUSH1 0x3 DUP2 MSTORE PUSH1 0x20 ADD SWAP1 DUP2 MSTORE PUSH1 0x20 ADD PUSH1 0x0 KECCAK256 PUSH1 0x0 DUP3 ADD MLOAD DUP2 PUSH1 0x0 ADD SSTORE PUSH1 0x20 DUP3 ADD MLOAD DUP2 PUSH1 0x1 ADD SWAP1 DUP2 PUSH2 0x53F SWAP2 SWAP1 PUSH2 0x837 JUMP JUMPDEST POP PUSH1 0x40 DUP3 ADD MLOAD DUP2 PUSH1 0x2 ADD SWAP1 DUP2 PUSH2 0x555 SWAP2 SWAP1 PUSH2 0x837 JUMP JUMPDEST POP PUSH1 0x60 DUP3 ADD MLOAD DUP2 PUSH1 0x3 ADD SWAP1 DUP2 PUSH2 0x56B SWAP2 SWAP1 PUSH2 0x837 JUMP JUMPDEST POP PUSH1 0x80 DUP3 ADD MLOAD DUP2 PUSH1 0x4 ADD SWAP1 DUP2 PUSH2 0x581 SWAP2 SWAP1 PUSH2 0x837 JUMP JUMPDEST POP PUSH1 0xA0 DUP3 ADD MLOAD DUP2 PUSH1 0x5 ADD SWAP1 DUP2 PUSH2 0x597 SWAP2 SWAP1 PUSH2 0x837 JUMP JUMPDEST POP PUSH1 0xC0 DUP3 ADD MLOAD DUP2 PUSH1 0x6 ADD PUSH1 0x0 PUSH2 0x100 EXP DUP2 SLOAD DUP2 PUSH20 0xFFFFFFFFFFFFFFFFFFFFFFFFFFFFFFFFFFFFFFFF MUL NOT AND SWAP1 DUP4 PUSH20 0xFFFFFFFFFFFFFFFFFFFFFFFFFFFFFFFFFFFFFFFF AND MUL OR SWAP1 SSTORE POP SWAP1 POP POP PUSH2 0x909 JUMP JUMPDEST PUSH1 0x0 DUP2 MLOAD SWAP1 POP SWAP2 SWAP1 POP JUMP JUMPDEST PUSH32 0x4E487B7100000000000000000000000000000000000000000000000000000000 PUSH1 0x0 MSTORE PUSH1 0x41 PUSH1 0x4 MSTORE PUSH1 0x24 PUSH1 0x0 REVERT JUMPDEST PUSH32 0x4E487B7100000000000000000000000000000000000000000000000000000000 PUSH1 0x0 MSTORE PUSH1 0x22 PUSH1 0x4 MSTORE PUSH1 0x24 PUSH1 0x0 REVERT JUMPDEST PUSH1 0x0 PUSH1 0x2 DUP3 DIV SWAP1 POP PUSH1 0x1 DUP3 AND DUP1 PUSH2 0x668 JUMPI PUSH1 0x7F DUP3 AND SWAP2 POP JUMPDEST PUSH1 0x20 DUP3 LT DUP2 SUB PUSH2 0x67B JUMPI PUSH2 0x67A PUSH2 0x621 JUMP JUMPDEST JUMPDEST POP SWAP2 SWAP1 POP JUMP JUMPDEST PUSH1 0x0 DUP2 SWAP1 POP DUP2 PUSH1 0x0 MSTORE PUSH1 0x20 PUSH1 0x0 KECCAK256 SWAP1 POP SWAP2 SWAP1 POP JUMP JUMPDEST PUSH1 0x0 PUSH1 0x20 PUSH1 0x1F DUP4 ADD DIV SWAP1 POP SWAP2 SWAP1 POP JUMP JUMPDEST PUSH1 0x0 DUP3 DUP3 SHL SWAP1 POP SWAP3 SWAP2 POP POP JUMP JUMPDEST PUSH1 0x0 PUSH1 0x8 DUP4 MUL PUSH2 0x6E3 PUSH32 0xFFFFFFFFFFFFFFFFFFFFFFFFFFFFFFFFFFFFFFFFFFFFFFFFFFFFFFFFFFFFFFFF DUP3 PUSH2 0x6A6 JUMP JUMPDEST PUSH2 0x6ED DUP7 DUP4 PUSH2 0x6A6 JUMP JUMPDEST SWAP6 POP DUP1 NOT DUP5 AND SWAP4 POP DUP1 DUP7 AND DUP5 OR SWAP3 POP POP POP SWAP4 SWAP3 POP POP POP JUMP JUMPDEST PUSH1 0x0 DUP2 SWAP1 POP SWAP2 SWAP1 POP JUMP JUMPDEST PUSH1 0x0 DUP2 SWAP1 POP SWAP2 SWAP1 POP JUMP JUMPDEST PUSH1 0x0 PUSH2 0x734 PUSH2 0x72F PUSH2 0x72A DUP5 PUSH2 0x705 JUMP JUMPDEST PUSH2 0x70F JUMP JUMPDEST PUSH2 0x705 JUMP JUMPDEST SWAP1 POP SWAP2 SWAP1 POP JUMP JUMPDEST PUSH1 0x0 DUP2 SWAP1 POP SWAP2 SWAP1 POP JUMP JUMPDEST PUSH2 0x74E DUP4 PUSH2 0x719 JUMP JUMPDEST PUSH2 0x762 PUSH2 0x75A DUP3 PUSH2 0x73B JUMP JUMPDEST DUP5 DUP5 SLOAD PUSH2 0x6B3 JUMP JUMPDEST DUP3 SSTORE POP POP POP POP JUMP JUMPDEST PUSH1 0x0 SWAP1 JUMP JUMPDEST PUSH2 0x777 PUSH2 0x76A JUMP JUMPDEST PUSH2 0x782 DUP2 DUP5 DUP5 PUSH2 0x745 JUMP JUMPDEST POP POP POP JUMP JUMPDEST JUMPDEST DUP2 DUP2 LT ISZERO PUSH2 0x7A6 JUMPI PUSH2 0x79B PUSH1 0x0 DUP3 PUSH2 0x76F JUMP JUMPDEST PUSH1 0x1 DUP2 ADD SWAP1 POP PUSH2 0x788 JUMP JUMPDEST POP POP JUMP JUMPDEST PUSH1 0x1F DUP3 GT ISZERO PUSH2 0x7EB JUMPI PUSH2 0x7BC DUP2 PUSH2 0x681 JUMP JUMPDEST PUSH2 0x7C5 DUP5 PUSH2 0x696 JUMP JUMPDEST DUP2 ADD PUSH1 0x20 DUP6 LT ISZERO PUSH2 0x7D4 JUMPI DUP2 SWAP1 POP JUMPDEST PUSH2 0x7E8 PUSH2 0x7E0 DUP6 PUSH2 0x696 JUMP JUMPDEST DUP4 ADD DUP3 PUSH2 0x787 JUMP JUMPDEST POP POP JUMPDEST POP POP POP JUMP JUMPDEST PUSH1 0x0 DUP3 DUP3 SHR SWAP1 POP SWAP3 SWAP2 POP POP JUMP JUMPDEST PUSH1 0x0 PUSH2 0x80E PUSH1 0x0 NOT DUP5 PUSH1 0x8 MUL PUSH2 0x7F0 JUMP JUMPDEST NOT DUP1 DUP4 AND SWAP2 POP POP SWAP3 SWAP2 POP POP JUMP JUMPDEST PUSH1 0x0 PUSH2 0x827 DUP4 DUP4 PUSH2 0x7FD JUMP JUMPDEST SWAP2 POP DUP3 PUSH1 0x2 MUL DUP3 OR SWAP1 POP SWAP3 SWAP2 POP POP JUMP JUMPDEST PUSH2 0x840 DUP3 PUSH2 0x5E7 JUMP JUMPDEST PUSH8 0xFFFFFFFFFFFFFFFF DUP2 GT ISZERO PUSH2 0x859 JUMPI PUSH2 0x858 PUSH2 0x5F2 JUMP JUMPDEST JUMPDEST PUSH2 0x863 DUP3 SLOAD PUSH2 0x650 JUMP JUMPDEST PUSH2 0x86E DUP3 DUP3 DUP6 PUSH2 0x7AA JUMP JUMPDEST PUSH1 0x0 PUSH1 0x20 SWAP1 POP PUSH1 0x1F DUP4 GT PUSH1 0x1 DUP2 EQ PUSH2 0x8A1 JUMPI PUSH1 0x0 DUP5 ISZERO PUSH2 0x88F JUMPI DUP3 DUP8 ADD MLOAD SWAP1 POP JUMPDEST PUSH2 0x899 DUP6 DUP3 PUSH2 0x81B JUMP JUMPDEST DUP7 SSTORE POP PUSH2 0x901 JUMP JUMPDEST PUSH1 0x1F NOT DUP5 AND PUSH2 0x8AF DUP7 PUSH2 0x681 JUMP JUMPDEST PUSH1 0x0 JUMPDEST DUP3 DUP2 LT ISZERO PUSH2 0x8D7 JUMPI DUP5 DUP10 ADD MLOAD DUP3 SSTORE PUSH1 0x1 DUP3 ADD SWAP2 POP PUSH1 0x20 DUP6 ADD SWAP5 POP PUSH1 0x20 DUP2 ADD SWAP1 POP PUSH2 0x8B2 JUMP JUMPDEST DUP7 DUP4 LT ISZERO PUSH2 0x8F4 JUMPI DUP5 DUP10 ADD MLOAD PUSH2 0x8F0 PUSH1 0x1F DUP10 AND DUP3 PUSH2 0x7FD JUMP JUMPDEST DUP4 SSTORE POP JUMPDEST PUSH1 0x1 PUSH1 0x2 DUP9 MUL ADD DUP9 SSTORE POP POP POP JUMPDEST POP POP POP POP POP POP JUMP JUMPDEST PUSH2 0x2129 DUP1 PUSH2 0x918 PUSH1 0x0 CODECOPY PUSH1 0x0 RETURN INVALID PUSH1 0x80 PUSH1 0x40 MSTORE CALLVALUE DUP1 ISZERO PUSH2 0x10 JUMPI PUSH1 0x0 DUP1 REVERT JUMPDEST POP PUSH1 0x4 CALLDATASIZE LT PUSH2 0x9E JUMPI PUSH1 0x0 CALLDATALOAD PUSH1 0xE0 SHR DUP1 PUSH4 0xA00C5127 GT PUSH2 0x66 JUMPI DUP1 PUSH4 0xA00C5127 EQ PUSH2 0x179 JUMPI DUP1 PUSH4 0xA23BA70B EQ PUSH2 0x1A9 JUMPI DUP1 PUSH4 0xBA173C88 EQ PUSH2 0x1C7 JUMPI DUP1 PUSH4 0xE4C13535 EQ PUSH2 0x1F7 JUMPI DUP1 PUSH4 0xEEBC3FB2 EQ PUSH2 0x213 JUMPI PUSH2 0x9E JUMP JUMPDEST DUP1 PUSH4 0x68A423B EQ PUSH2 0xA3 JUMPI DUP1 PUSH4 0x869CFBC EQ PUSH2 0xBF JUMPI DUP1 PUSH4 0x12DC9013 EQ PUSH2 0xF1 JUMPI DUP1 PUSH4 0x6EFB1B84 EQ PUSH2 0x127 JUMPI DUP1 PUSH4 0x80911FA4 EQ PUSH2 0x15D JUMPI JUMPDEST PUSH1 0x0 DUP1 REVERT JUMPDEST PUSH2 0xBD PUSH1 0x4 DUP1 CALLDATASIZE SUB DUP2 ADD SWAP1 PUSH2 0xB8 SWAP2 SWAP1 PUSH2 0x1408 JUMP JUMPDEST PUSH2 0x231 JUMP JUMPDEST STOP JUMPDEST PUSH2 0xD9 PUSH1 0x4 DUP1 CALLDATASIZE SUB DUP2 ADD SWAP1 PUSH2 0xD4 SWAP2 SWAP1 PUSH2 0x14A6 JUMP JUMPDEST PUSH2 0x2B2 JUMP JUMPDEST PUSH1 0x40 MLOAD PUSH2 0xE8 SWAP4 SWAP3 SWAP2 SWAP1 PUSH2 0x1572 JUMP JUMPDEST PUSH1 0x40 MLOAD DUP1 SWAP2 SUB SWAP1 RETURN JUMPDEST PUSH2 0x10B PUSH1 0x4 DUP1 CALLDATASIZE SUB DUP2 ADD SWAP1 PUSH2 0x106 SWAP2 SWAP1 PUSH2 0x15B7 JUMP JUMPDEST PUSH2 0x40C JUMP JUMPDEST PUSH1 0x40 MLOAD PUSH2 0x11E SWAP8 SWAP7 SWAP6 SWAP5 SWAP4 SWAP3 SWAP2 SWAP1 PUSH2 0x166A JUMP JUMPDEST PUSH1 0x40 MLOAD DUP1 SWAP2 SUB SWAP1 RETURN JUMPDEST PUSH2 0x141 PUSH1 0x4 DUP1 CALLDATASIZE SUB DUP2 ADD SWAP1 PUSH2 0x13C SWAP2 SWAP1 PUSH2 0x15B7 JUMP JUMPDEST PUSH2 0x58B JUMP JUMPDEST PUSH1 0x40 MLOAD PUSH2 0x154 SWAP8 SWAP7 SWAP6 SWAP5 SWAP4 SWAP3 SWAP2 SWAP1 PUSH2 0x16E7 JUMP JUMPDEST PUSH1 0x40 MLOAD DUP1 SWAP2 SUB SWAP1 RETURN JUMPDEST PUSH2 0x177 PUSH1 0x4 DUP1 CALLDATASIZE SUB DUP2 ADD SWAP1 PUSH2 0x172 SWAP2 SWAP1 PUSH2 0x18AE JUMP JUMPDEST PUSH2 0x895 JUMP JUMPDEST STOP JUMPDEST PUSH2 0x193 PUSH1 0x4 DUP1 CALLDATASIZE SUB DUP2 ADD SWAP1 PUSH2 0x18E SWAP2 SWAP1 PUSH2 0x15B7 JUMP JUMPDEST PUSH2 0x9B8 JUMP JUMPDEST PUSH1 0x40 MLOAD PUSH2 0x1A0 SWAP2 SWAP1 PUSH2 0x1B02 JUMP JUMPDEST PUSH1 0x40 MLOAD DUP1 SWAP2 SUB SWAP1 RETURN JUMPDEST PUSH2 0x1B1 PUSH2 0xCCE JUMP JUMPDEST PUSH1 0x40 MLOAD PUSH2 0x1BE SWAP2 SWAP1 PUSH2 0x1B02 JUMP JUMPDEST PUSH1 0x40 MLOAD DUP1 SWAP2 SUB SWAP1 RETURN JUMPDEST PUSH2 0x1E1 PUSH1 0x4 DUP1 CALLDATASIZE SUB DUP2 ADD SWAP1 PUSH2 0x1DC SWAP2 SWAP1 PUSH2 0x15B7 JUMP JUMPDEST PUSH2 0x107A JUMP JUMPDEST PUSH1 0x40 MLOAD PUSH2 0x1EE SWAP2 SWAP1 PUSH2 0x1B24 JUMP JUMPDEST PUSH1 0x40 MLOAD DUP1 SWAP2 SUB SWAP1 RETURN JUMPDEST PUSH2 0x211 PUSH1 0x4 DUP1 CALLDATASIZE SUB DUP2 ADD SWAP1 PUSH2 0x20C SWAP2 SWAP1 PUSH2 0x1B3F JUMP JUMPDEST PUSH2 0x10F7 JUMP JUMPDEST STOP JUMPDEST PUSH2 0x21B PUSH2 0x132E JUMP JUMPDEST PUSH1 0x40 MLOAD PUSH2 0x228 SWAP2 SWAP1 PUSH2 0x1BDE JUMP JUMPDEST PUSH1 0x40 MLOAD DUP1 SWAP2 SUB SWAP1 RETURN JUMPDEST PUSH1 0x0 PUSH1 0x3 PUSH1 0x0 DUP5 DUP2 MSTORE PUSH1 0x20 ADD SWAP1 DUP2 MSTORE PUSH1 0x20 ADD PUSH1 0x0 KECCAK256 SWAP1 POP DUP2 DUP2 PUSH1 0x6 ADD PUSH1 0x0 PUSH2 0x100 EXP DUP2 SLOAD DUP2 PUSH1 0xFF MUL NOT AND SWAP1 DUP4 PUSH1 0x2 DUP2 GT ISZERO PUSH2 0x26F JUMPI PUSH2 0x26E PUSH2 0x15F3 JUMP JUMPDEST JUMPDEST MUL OR SWAP1 SSTORE POP PUSH32 0x2D344BCA0C605026BEF7524E939B12ADD7FB8A8A5CD5135CBC8361BE14EC4843 DUP4 DUP4 PUSH1 0x40 MLOAD PUSH2 0x2A5 SWAP3 SWAP2 SWAP1 PUSH2 0x1BF9 JUMP JUMPDEST PUSH1 0x40 MLOAD DUP1 SWAP2 SUB SWAP1 LOG1 POP POP POP JUMP JUMPDEST PUSH1 0x2 PUSH1 0x20 MSTORE DUP1 PUSH1 0x0 MSTORE PUSH1 0x40 PUSH1 0x0 KECCAK256 PUSH1 0x0 SWAP2 POP SWAP1 POP DUP1 PUSH1 0x0 ADD PUSH1 0x0 SWAP1 SLOAD SWAP1 PUSH2 0x100 EXP SWAP1 DIV PUSH20 0xFFFFFFFFFFFFFFFFFFFFFFFFFFFFFFFFFFFFFFFF AND SWAP1 DUP1 PUSH1 0x1 ADD DUP1 SLOAD PUSH2 0x2FB SWAP1 PUSH2 0x1C51 JUMP JUMPDEST DUP1 PUSH1 0x1F ADD PUSH1 0x20 DUP1 SWAP2 DIV MUL PUSH1 0x20 ADD PUSH1 0x40 MLOAD SWAP1 DUP2 ADD PUSH1 0x40 MSTORE DUP1 SWAP3 SWAP2 SWAP1 DUP2 DUP2 MSTORE PUSH1 0x20 ADD DUP3 DUP1 SLOAD PUSH2 0x327 SWAP1 PUSH2 0x1C51 JUMP JUMPDEST DUP1 ISZERO PUSH2 0x374 JUMPI DUP1 PUSH1 0x1F LT PUSH2 0x349 JUMPI PUSH2 0x100 DUP1 DUP4 SLOAD DIV MUL DUP4 MSTORE SWAP2 PUSH1 0x20 ADD SWAP2 PUSH2 0x374 JUMP JUMPDEST DUP3 ADD SWAP2 SWAP1 PUSH1 0x0 MSTORE PUSH1 0x20 PUSH1 0x0 KECCAK256 SWAP1 JUMPDEST DUP2 SLOAD DUP2 MSTORE SWAP1 PUSH1 0x1 ADD SWAP1 PUSH1 0x20 ADD DUP1 DUP4 GT PUSH2 0x357 JUMPI DUP3 SWAP1 SUB PUSH1 0x1F AND DUP3 ADD SWAP2 JUMPDEST POP POP POP POP POP SWAP1 DUP1 PUSH1 0x2 ADD DUP1 SLOAD PUSH2 0x389 SWAP1 PUSH2 0x1C51 JUMP JUMPDEST DUP1 PUSH1 0x1F ADD PUSH1 0x20 DUP1 SWAP2 DIV MUL PUSH1 0x20 ADD PUSH1 0x40 MLOAD SWAP1 DUP2 ADD PUSH1 0x40 MSTORE DUP1 SWAP3 SWAP2 SWAP1 DUP2 DUP2 MSTORE PUSH1 0x20 ADD DUP3 DUP1 SLOAD PUSH2 0x3B5 SWAP1 PUSH2 0x1C51 JUMP JUMPDEST DUP1 ISZERO PUSH2 0x402 JUMPI DUP1 PUSH1 0x1F LT PUSH2 0x3D7 JUMPI PUSH2 0x100 DUP1 DUP4 SLOAD DIV MUL DUP4 MSTORE SWAP2 PUSH1 0x20 ADD SWAP2 PUSH2 0x402 JUMP JUMPDEST DUP3 ADD SWAP2 SWAP1 PUSH1 0x0 MSTORE PUSH1 0x20 PUSH1 0x0 KECCAK256 SWAP1 JUMPDEST DUP2 SLOAD DUP2 MSTORE SWAP1 PUSH1 0x1 ADD SWAP1 PUSH1 0x20 ADD DUP1 DUP4 GT PUSH2 0x3E5 JUMPI DUP3 SWAP1 SUB PUSH1 0x1F AND DUP3 ADD SWAP2 JUMPDEST POP POP POP POP POP SWAP1 POP DUP4 JUMP JUMPDEST PUSH1 0x3 PUSH1 0x20 MSTORE DUP1 PUSH1 0x0 MSTORE PUSH1 0x40 PUSH1 0x0 KECCAK256 PUSH1 0x0 SWAP2 POP SWAP1 POP DUP1 PUSH1 0x0 ADD SLOAD SWAP1 DUP1 PUSH1 0x1 ADD PUSH1 0x0 SWAP1 SLOAD SWAP1 PUSH2 0x100 EXP SWAP1 DIV PUSH20 0xFFFFFFFFFFFFFFFFFFFFFFFFFFFFFFFFFFFFFFFF AND SWAP1 DUP1 PUSH1 0x2 ADD SLOAD SWAP1 DUP1 PUSH1 0x3 ADD DUP1 SLOAD PUSH2 0x461 SWAP1 PUSH2 0x1C51 JUMP JUMPDEST DUP1 PUSH1 0x1F ADD PUSH1 0x20 DUP1 SWAP2 DIV MUL PUSH1 0x20 ADD PUSH1 0x40 MLOAD SWAP1 DUP2 ADD PUSH1 0x40 MSTORE DUP1 SWAP3 SWAP2 SWAP1 DUP2 DUP2 MSTORE PUSH1 0x20 ADD DUP3 DUP1 SLOAD PUSH2 0x48D SWAP1 PUSH2 0x1C51 JUMP JUMPDEST DUP1 ISZERO PUSH2 0x4DA JUMPI DUP1 PUSH1 0x1F LT PUSH2 0x4AF JUMPI PUSH2 0x100 DUP1 DUP4 SLOAD DIV MUL DUP4 MSTORE SWAP2 PUSH1 0x20 ADD SWAP2 PUSH2 0x4DA JUMP JUMPDEST DUP3 ADD SWAP2 SWAP1 PUSH1 0x0 MSTORE PUSH1 0x20 PUSH1 0x0 KECCAK256 SWAP1 JUMPDEST DUP2 SLOAD DUP2 MSTORE SWAP1 PUSH1 0x1 ADD SWAP1 PUSH1 0x20 ADD DUP1 DUP4 GT PUSH2 0x4BD JUMPI DUP3 SWAP1 SUB PUSH1 0x1F AND DUP3 ADD SWAP2 JUMPDEST POP POP POP POP POP SWAP1 DUP1 PUSH1 0x4 ADD DUP1 SLOAD PUSH2 0x4EF SWAP1 PUSH2 0x1C51 JUMP JUMPDEST DUP1 PUSH1 0x1F ADD PUSH1 0x20 DUP1 SWAP2 DIV MUL PUSH1 0x20 ADD PUSH1 0x40 MLOAD SWAP1 DUP2 ADD PUSH1 0x40 MSTORE DUP1 SWAP3 SWAP2 SWAP1 DUP2 DUP2 MSTORE PUSH1 0x20 ADD DUP3 DUP1 SLOAD PUSH2 0x51B SWAP1 PUSH2 0x1C51 JUMP JUMPDEST DUP1 ISZERO PUSH2 0x568 JUMPI DUP1 PUSH1 0x1F LT PUSH2 0x53D JUMPI PUSH2 0x100 DUP1 DUP4 SLOAD DIV MUL DUP4 MSTORE SWAP2 PUSH1 0x20 ADD SWAP2 PUSH2 0x568 JUMP JUMPDEST DUP3 ADD SWAP2 SWAP1 PUSH1 0x0 MSTORE PUSH1 0x20 PUSH1 0x0 KECCAK256 SWAP1 JUMPDEST DUP2 SLOAD DUP2 MSTORE SWAP1 PUSH1 0x1 ADD SWAP1 PUSH1 0x20 ADD DUP1 DUP4 GT PUSH2 0x54B JUMPI DUP3 SWAP1 SUB PUSH1 0x1F AND DUP3 ADD SWAP2 JUMPDEST POP POP POP POP POP SWAP1 DUP1 PUSH1 0x5 ADD SLOAD SWAP1 DUP1 PUSH1 0x6 ADD PUSH1 0x0 SWAP1 SLOAD SWAP1 PUSH2 0x100 EXP SWAP1 DIV PUSH1 0xFF AND SWAP1 POP DUP8 JUMP JUMPDEST PUSH1 0x1 PUSH1 0x20 MSTORE DUP1 PUSH1 0x0 MSTORE PUSH1 0x40 PUSH1 0x0 KECCAK256 PUSH1 0x0 SWAP2 POP SWAP1 POP DUP1 PUSH1 0x0 ADD SLOAD SWAP1 DUP1 PUSH1 0x1 ADD DUP1 SLOAD PUSH2 0x5B4 SWAP1 PUSH2 0x1C51 JUMP JUMPDEST DUP1 PUSH1 0x1F ADD PUSH1 0x20 DUP1 SWAP2 DIV MUL PUSH1 0x20 ADD PUSH1 0x40 MLOAD SWAP1 DUP2 ADD PUSH1 0x40 MSTORE DUP1 SWAP3 SWAP2 SWAP1 DUP2 DUP2 MSTORE PUSH1 0x20 ADD DUP3 DUP1 SLOAD PUSH2 0x5E0 SWAP1 PUSH2 0x1C51 JUMP JUMPDEST DUP1 ISZERO PUSH2 0x62D JUMPI DUP1 PUSH1 0x1F LT PUSH2 0x602 JUMPI PUSH2 0x100 DUP1 DUP4 SLOAD DIV MUL DUP4 MSTORE SWAP2 PUSH1 0x20 ADD SWAP2 PUSH2 0x62D JUMP JUMPDEST DUP3 ADD SWAP2 SWAP1 PUSH1 0x0 MSTORE PUSH1 0x20 PUSH1 0x0 KECCAK256 SWAP1 JUMPDEST DUP2 SLOAD DUP2 MSTORE SWAP1 PUSH1 0x1 ADD SWAP1 PUSH1 0x20 ADD DUP1 DUP4 GT PUSH2 0x610 JUMPI DUP3 SWAP1 SUB PUSH1 0x1F AND DUP3 ADD SWAP2 JUMPDEST POP POP POP POP POP SWAP1 DUP1 PUSH1 0x2 ADD DUP1 SLOAD PUSH2 0x642 SWAP1 PUSH2 0x1C51 JUMP JUMPDEST DUP1 PUSH1 0x1F ADD PUSH1 0x20 DUP1 SWAP2 DIV MUL PUSH1 0x20 ADD PUSH1 0x40 MLOAD SWAP1 DUP2 ADD PUSH1 0x40 MSTORE DUP1 SWAP3 SWAP2 SWAP1 DUP2 DUP2 MSTORE PUSH1 0x20 ADD DUP3 DUP1 SLOAD PUSH2 0x66E SWAP1 PUSH2 0x1C51 JUMP JUMPDEST DUP1 ISZERO PUSH2 0x6BB JUMPI DUP1 PUSH1 0x1F LT PUSH2 0x690 JUMPI PUSH2 0x100 DUP1 DUP4 SLOAD DIV MUL DUP4 MSTORE SWAP2 PUSH1 0x20 ADD SWAP2 PUSH2 0x6BB JUMP JUMPDEST DUP3 ADD SWAP2 SWAP1 PUSH1 0x0 MSTORE PUSH1 0x20 PUSH1 0x0 KECCAK256 SWAP1 JUMPDEST DUP2 SLOAD DUP2 MSTORE SWAP1 PUSH1 0x1 ADD SWAP1 PUSH1 0x20 ADD DUP1 DUP4 GT PUSH2 0x69E JUMPI DUP3 SWAP1 SUB PUSH1 0x1F AND DUP3 ADD SWAP2 JUMPDEST POP POP POP POP POP SWAP1 DUP1 PUSH1 0x3 ADD DUP1 SLOAD PUSH2 0x6D0 SWAP1 PUSH2 0x1C51 JUMP JUMPDEST DUP1 PUSH1 0x1F ADD PUSH1 0x20 DUP1 SWAP2 DIV MUL PUSH1 0x20 ADD PUSH1 0x40 MLOAD SWAP1 DUP2 ADD PUSH1 0x40 MSTORE DUP1 SWAP3 SWAP2 SWAP1 DUP2 DUP2 MSTORE PUSH1 0x20 ADD DUP3 DUP1 SLOAD PUSH2 0x6FC SWAP1 PUSH2 0x1C51 JUMP JUMPDEST DUP1 ISZERO PUSH2 0x749 JUMPI DUP1 PUSH1 0x1F LT PUSH2 0x71E JUMPI PUSH2 0x100 DUP1 DUP4 SLOAD DIV MUL DUP4 MSTORE SWAP2 PUSH1 0x20 ADD SWAP2 PUSH2 0x749 JUMP JUMPDEST DUP3 ADD SWAP2 SWAP1 PUSH1 0x0 MSTORE PUSH1 0x20 PUSH1 0x0 KECCAK256 SWAP1 JUMPDEST DUP2 SLOAD DUP2 MSTORE SWAP1 PUSH1 0x1 ADD SWAP1 PUSH1 0x20 ADD DUP1 DUP4 GT PUSH2 0x72C JUMPI DUP3 SWAP1 SUB PUSH1 0x1F AND DUP3 ADD SWAP2 JUMPDEST POP POP POP POP POP SWAP1 DUP1 PUSH1 0x4 ADD DUP1 SLOAD PUSH2 0x75E SWAP1 PUSH2 0x1C51 JUMP JUMPDEST DUP1 PUSH1 0x1F ADD PUSH1 0x20 DUP1 SWAP2 DIV MUL PUSH1 0x20 ADD PUSH1 0x40 MLOAD SWAP1 DUP2 ADD PUSH1 0x40 MSTORE DUP1 SWAP3 SWAP2 SWAP1 DUP2 DUP2 MSTORE PUSH1 0x20 ADD DUP3 DUP1 SLOAD PUSH2 0x78A SWAP1 PUSH2 0x1C51 JUMP JUMPDEST DUP1 ISZERO PUSH2 0x7D7 JUMPI DUP1 PUSH1 0x1F LT PUSH2 0x7AC JUMPI PUSH2 0x100 DUP1 DUP4 SLOAD DIV MUL DUP4 MSTORE SWAP2 PUSH1 0x20 ADD SWAP2 PUSH2 0x7D7 JUMP JUMPDEST DUP3 ADD SWAP2 SWAP1 PUSH1 0x0 MSTORE PUSH1 0x20 PUSH1 0x0 KECCAK256 SWAP1 JUMPDEST DUP2 SLOAD DUP2 MSTORE SWAP1 PUSH1 0x1 ADD SWAP1 PUSH1 0x20 ADD DUP1 DUP4 GT PUSH2 0x7BA JUMPI DUP3 SWAP1 SUB PUSH1 0x1F AND DUP3 ADD SWAP2 JUMPDEST POP POP POP POP POP SWAP1 DUP1 PUSH1 0x5 ADD DUP1 SLOAD PUSH2 0x7EC SWAP1 PUSH2 0x1C51 JUMP JUMPDEST DUP1 PUSH1 0x1F ADD PUSH1 0x20 DUP1 SWAP2 DIV MUL PUSH1 0x20 ADD PUSH1 0x40 MLOAD SWAP1 DUP2 ADD PUSH1 0x40 MSTORE DUP1 SWAP3 SWAP2 SWAP1 DUP2 DUP2 MSTORE PUSH1 0x20 ADD DUP3 DUP1 SLOAD PUSH2 0x818 SWAP1 PUSH2 0x1C51 JUMP JUMPDEST DUP1 ISZERO PUSH2 0x865 JUMPI DUP1 PUSH1 0x1F LT PUSH2 0x83A JUMPI PUSH2 0x100 DUP1 DUP4 SLOAD DIV MUL DUP4 MSTORE SWAP2 PUSH1 0x20 ADD SWAP2 PUSH2 0x865 JUMP JUMPDEST DUP3 ADD SWAP2 SWAP1 PUSH1 0x0 MSTORE PUSH1 0x20 PUSH1 0x0 KECCAK256 SWAP1 JUMPDEST DUP2 SLOAD DUP2 MSTORE SWAP1 PUSH1 0x1 ADD SWAP1 PUSH1 0x20 ADD DUP1 DUP4 GT PUSH2 0x848 JUMPI DUP3 SWAP1 SUB PUSH1 0x1F AND DUP3 ADD SWAP2 JUMPDEST POP POP POP POP POP SWAP1 DUP1 PUSH1 0x6 ADD PUSH1 0x0 SWAP1 SLOAD SWAP1 PUSH2 0x100 EXP SWAP1 DIV PUSH20 0xFFFFFFFFFFFFFFFFFFFFFFFFFFFFFFFFFFFFFFFF AND SWAP1 POP DUP8 JUMP JUMPDEST PUSH1 0x40 MLOAD DUP1 PUSH1 0x60 ADD PUSH1 0x40 MSTORE DUP1 CALLER PUSH20 0xFFFFFFFFFFFFFFFFFFFFFFFFFFFFFFFFFFFFFFFF AND DUP2 MSTORE PUSH1 0x20 ADD DUP4 DUP2 MSTORE PUSH1 0x20 ADD DUP3 DUP2 MSTORE POP PUSH1 0x2 PUSH1 0x0 CALLER PUSH20 0xFFFFFFFFFFFFFFFFFFFFFFFFFFFFFFFFFFFFFFFF AND PUSH20 0xFFFFFFFFFFFFFFFFFFFFFFFFFFFFFFFFFFFFFFFF AND DUP2 MSTORE PUSH1 0x20 ADD SWAP1 DUP2 MSTORE PUSH1 0x20 ADD PUSH1 0x0 KECCAK256 PUSH1 0x0 DUP3 ADD MLOAD DUP2 PUSH1 0x0 ADD PUSH1 0x0 PUSH2 0x100 EXP DUP2 SLOAD DUP2 PUSH20 0xFFFFFFFFFFFFFFFFFFFFFFFFFFFFFFFFFFFFFFFF MUL NOT AND SWAP1 DUP4 PUSH20 0xFFFFFFFFFFFFFFFFFFFFFFFFFFFFFFFFFFFFFFFF AND MUL OR SWAP1 SSTORE POP PUSH1 0x20 DUP3 ADD MLOAD DUP2 PUSH1 0x1 ADD SWAP1 DUP2 PUSH2 0x961 SWAP2 SWAP1 PUSH2 0x1E2E JUMP JUMPDEST POP PUSH1 0x40 DUP3 ADD MLOAD DUP2 PUSH1 0x2 ADD SWAP1 DUP2 PUSH2 0x977 SWAP2 SWAP1 PUSH2 0x1E2E JUMP JUMPDEST POP SWAP1 POP POP PUSH32 0xC85B128388B9C331A2A5485DCE4CD0F3DB9F7C279D327CE95D6D39D6C94644C7 CALLER DUP4 PUSH1 0x40 MLOAD PUSH2 0x9AC SWAP3 SWAP2 SWAP1 PUSH2 0x1F00 JUMP JUMPDEST PUSH1 0x40 MLOAD DUP1 SWAP2 SUB SWAP1 LOG1 POP POP JUMP JUMPDEST PUSH1 0x60 PUSH1 0x0 DUP1 PUSH1 0x1 SWAP1 POP JUMPDEST PUSH1 0x0 SLOAD DUP2 GT PUSH2 0xA0A JUMPI DUP4 PUSH1 0x3 PUSH1 0x0 DUP4 DUP2 MSTORE PUSH1 0x20 ADD SWAP1 DUP2 MSTORE PUSH1 0x20 ADD PUSH1 0x0 KECCAK256 PUSH1 0x2 ADD SLOAD SUB PUSH2 0x9F7 JUMPI DUP2 DUP1 PUSH2 0x9F3 SWAP1 PUSH2 0x1F5F JUMP JUMPDEST SWAP3 POP POP JUMPDEST DUP1 DUP1 PUSH2 0xA02 SWAP1 PUSH2 0x1F5F JUMP JUMPDEST SWAP2 POP POP PUSH2 0x9C2 JUMP JUMPDEST POP PUSH1 0x0 DUP2 PUSH8 0xFFFFFFFFFFFFFFFF DUP2 GT ISZERO PUSH2 0xA27 JUMPI PUSH2 0xA26 PUSH2 0x1783 JUMP JUMPDEST JUMPDEST PUSH1 0x40 MLOAD SWAP1 DUP1 DUP3 MSTORE DUP1 PUSH1 0x20 MUL PUSH1 0x20 ADD DUP3 ADD PUSH1 0x40 MSTORE DUP1 ISZERO PUSH2 0xA60 JUMPI DUP2 PUSH1 0x20 ADD JUMPDEST PUSH2 0xA4D PUSH2 0x1334 JUMP JUMPDEST DUP2 MSTORE PUSH1 0x20 ADD SWAP1 PUSH1 0x1 SWAP1 SUB SWAP1 DUP2 PUSH2 0xA45 JUMPI SWAP1 POP JUMPDEST POP SWAP1 POP PUSH1 0x0 DUP1 PUSH1 0x1 SWAP1 POP JUMPDEST PUSH1 0x0 SLOAD DUP2 GT PUSH2 0xCC2 JUMPI DUP6 PUSH1 0x3 PUSH1 0x0 DUP4 DUP2 MSTORE PUSH1 0x20 ADD SWAP1 DUP2 MSTORE PUSH1 0x20 ADD PUSH1 0x0 KECCAK256 PUSH1 0x2 ADD SLOAD SUB PUSH2 0xCAF JUMPI PUSH1 0x3 PUSH1 0x0 DUP3 DUP2 MSTORE PUSH1 0x20 ADD SWAP1 DUP2 MSTORE PUSH1 0x20 ADD PUSH1 0x0 KECCAK256 PUSH1 0x40 MLOAD DUP1 PUSH1 0xE0 ADD PUSH1 0x40 MSTORE SWAP1 DUP2 PUSH1 0x0 DUP3 ADD SLOAD DUP2 MSTORE PUSH1 0x20 ADD PUSH1 0x1 DUP3 ADD PUSH1 0x0 SWAP1 SLOAD SWAP1 PUSH2 0x100 EXP SWAP1 DIV PUSH20 0xFFFFFFFFFFFFFFFFFFFFFFFFFFFFFFFFFFFFFFFF AND PUSH20 0xFFFFFFFFFFFFFFFFFFFFFFFFFFFFFFFFFFFFFFFF AND PUSH20 0xFFFFFFFFFFFFFFFFFFFFFFFFFFFFFFFFFFFFFFFF AND DUP2 MSTORE PUSH1 0x20 ADD PUSH1 0x2 DUP3 ADD SLOAD DUP2 MSTORE PUSH1 0x20 ADD PUSH1 0x3 DUP3 ADD DUP1 SLOAD PUSH2 0xB29 SWAP1 PUSH2 0x1C51 JUMP JUMPDEST DUP1 PUSH1 0x1F ADD PUSH1 0x20 DUP1 SWAP2 DIV MUL PUSH1 0x20 ADD PUSH1 0x40 MLOAD SWAP1 DUP2 ADD PUSH1 0x40 MSTORE DUP1 SWAP3 SWAP2 SWAP1 DUP2 DUP2 MSTORE PUSH1 0x20 ADD DUP3 DUP1 SLOAD PUSH2 0xB55 SWAP1 PUSH2 0x1C51 JUMP JUMPDEST DUP1 ISZERO PUSH2 0xBA2 JUMPI DUP1 PUSH1 0x1F LT PUSH2 0xB77 JUMPI PUSH2 0x100 DUP1 DUP4 SLOAD DIV MUL DUP4 MSTORE SWAP2 PUSH1 0x20 ADD SWAP2 PUSH2 0xBA2 JUMP JUMPDEST DUP3 ADD SWAP2 SWAP1 PUSH1 0x0 MSTORE PUSH1 0x20 PUSH1 0x0 KECCAK256 SWAP1 JUMPDEST DUP2 SLOAD DUP2 MSTORE SWAP1 PUSH1 0x1 ADD SWAP1 PUSH1 0x20 ADD DUP1 DUP4 GT PUSH2 0xB85 JUMPI DUP3 SWAP1 SUB PUSH1 0x1F AND DUP3 ADD SWAP2 JUMPDEST POP POP POP POP POP DUP2 MSTORE PUSH1 0x20 ADD PUSH1 0x4 DUP3 ADD DUP1 SLOAD PUSH2 0xBBB SWAP1 PUSH2 0x1C51 JUMP JUMPDEST DUP1 PUSH1 0x1F ADD PUSH1 0x20 DUP1 SWAP2 DIV MUL PUSH1 0x20 ADD PUSH1 0x40 MLOAD SWAP1 DUP2 ADD PUSH1 0x40 MSTORE DUP1 SWAP3 SWAP2 SWAP1 DUP2 DUP2 MSTORE PUSH1 0x20 ADD DUP3 DUP1 SLOAD PUSH2 0xBE7 SWAP1 PUSH2 0x1C51 JUMP JUMPDEST DUP1 ISZERO PUSH2 0xC34 JUMPI DUP1 PUSH1 0x1F LT PUSH2 0xC09 JUMPI PUSH2 0x100 DUP1 DUP4 SLOAD DIV MUL DUP4 MSTORE SWAP2 PUSH1 0x20 ADD SWAP2 PUSH2 0xC34 JUMP JUMPDEST DUP3 ADD SWAP2 SWAP1 PUSH1 0x0 MSTORE PUSH1 0x20 PUSH1 0x0 KECCAK256 SWAP1 JUMPDEST DUP2 SLOAD DUP2 MSTORE SWAP1 PUSH1 0x1 ADD SWAP1 PUSH1 0x20 ADD DUP1 DUP4 GT PUSH2 0xC17 JUMPI DUP3 SWAP1 SUB PUSH1 0x1F AND DUP3 ADD SWAP2 JUMPDEST POP POP POP POP POP DUP2 MSTORE PUSH1 0x20 ADD PUSH1 0x5 DUP3 ADD SLOAD DUP2 MSTORE PUSH1 0x20 ADD PUSH1 0x6 DUP3 ADD PUSH1 0x0 SWAP1 SLOAD SWAP1 PUSH2 0x100 EXP SWAP1 DIV PUSH1 0xFF AND PUSH1 0x2 DUP2 GT ISZERO PUSH2 0xC6C JUMPI PUSH2 0xC6B PUSH2 0x15F3 JUMP JUMPDEST JUMPDEST PUSH1 0x2 DUP2 GT ISZERO PUSH2 0xC7E JUMPI PUSH2 0xC7D PUSH2 0x15F3 JUMP JUMPDEST JUMPDEST DUP2 MSTORE POP POP DUP4 DUP4 DUP2 MLOAD DUP2 LT PUSH2 0xC95 JUMPI PUSH2 0xC94 PUSH2 0x1FA7 JUMP JUMPDEST JUMPDEST PUSH1 0x20 MUL PUSH1 0x20 ADD ADD DUP2 SWAP1 MSTORE POP DUP2 DUP1 PUSH2 0xCAB SWAP1 PUSH2 0x1F5F JUMP JUMPDEST SWAP3 POP POP JUMPDEST DUP1 DUP1 PUSH2 0xCBA SWAP1 PUSH2 0x1F5F JUMP JUMPDEST SWAP2 POP POP PUSH2 0xA6B JUMP JUMPDEST POP DUP2 SWAP4 POP POP POP POP SWAP2 SWAP1 POP JUMP JUMPDEST PUSH1 0x60 PUSH1 0x0 DUP1 PUSH1 0x1 SWAP1 POP JUMPDEST PUSH1 0x0 SLOAD DUP2 GT PUSH2 0xD6C JUMPI CALLER PUSH20 0xFFFFFFFFFFFFFFFFFFFFFFFFFFFFFFFFFFFFFFFF AND PUSH1 0x3 PUSH1 0x0 DUP4 DUP2 MSTORE PUSH1 0x20 ADD SWAP1 DUP2 MSTORE PUSH1 0x20 ADD PUSH1 0x0 KECCAK256 PUSH1 0x1 ADD PUSH1 0x0 SWAP1 SLOAD SWAP1 PUSH2 0x100 EXP SWAP1 DIV PUSH20 0xFFFFFFFFFFFFFFFFFFFFFFFFFFFFFFFFFFFFFFFF AND PUSH20 0xFFFFFFFFFFFFFFFFFFFFFFFFFFFFFFFFFFFFFFFF AND SUB PUSH2 0xD59 JUMPI DUP2 DUP1 PUSH2 0xD55 SWAP1 PUSH2 0x1F5F JUMP JUMPDEST SWAP3 POP POP JUMPDEST DUP1 DUP1 PUSH2 0xD64 SWAP1 PUSH2 0x1F5F JUMP JUMPDEST SWAP2 POP POP PUSH2 0xCD8 JUMP JUMPDEST POP PUSH1 0x0 DUP2 PUSH8 0xFFFFFFFFFFFFFFFF DUP2 GT ISZERO PUSH2 0xD89 JUMPI PUSH2 0xD88 PUSH2 0x1783 JUMP JUMPDEST JUMPDEST PUSH1 0x40 MLOAD SWAP1 DUP1 DUP3 MSTORE DUP1 PUSH1 0x20 MUL PUSH1 0x20 ADD DUP3 ADD PUSH1 0x40 MSTORE DUP1 ISZERO PUSH2 0xDC2 JUMPI DUP2 PUSH1 0x20 ADD JUMPDEST PUSH2 0xDAF PUSH2 0x1334 JUMP JUMPDEST DUP2 MSTORE PUSH1 0x20 ADD SWAP1 PUSH1 0x1 SWAP1 SUB SWAP1 DUP2 PUSH2 0xDA7 JUMPI SWAP1 POP JUMPDEST POP SWAP1 POP PUSH1 0x0 DUP1 PUSH1 0x1 SWAP1 POP JUMPDEST PUSH1 0x0 SLOAD DUP2 GT PUSH2 0x1070 JUMPI CALLER PUSH20 0xFFFFFFFFFFFFFFFFFFFFFFFFFFFFFFFFFFFFFFFF AND PUSH1 0x3 PUSH1 0x0 DUP4 DUP2 MSTORE PUSH1 0x20 ADD SWAP1 DUP2 MSTORE PUSH1 0x20 ADD PUSH1 0x0 KECCAK256 PUSH1 0x1 ADD PUSH1 0x0 SWAP1 SLOAD SWAP1 PUSH2 0x100 EXP SWAP1 DIV PUSH20 0xFFFFFFFFFFFFFFFFFFFFFFFFFFFFFFFFFFFFFFFF AND PUSH20 0xFFFFFFFFFFFFFFFFFFFFFFFFFFFFFFFFFFFFFFFF AND SUB PUSH2 0x105D JUMPI PUSH1 0x3 PUSH1 0x0 DUP3 DUP2 MSTORE PUSH1 0x20 ADD SWAP1 DUP2 MSTORE PUSH1 0x20 ADD PUSH1 0x0 KECCAK256 PUSH1 0x40 MLOAD DUP1 PUSH1 0xE0 ADD PUSH1 0x40 MSTORE SWAP1 DUP2 PUSH1 0x0 DUP3 ADD SLOAD DUP2 MSTORE PUSH1 0x20 ADD PUSH1 0x1 DUP3 ADD PUSH1 0x0 SWAP1 SLOAD SWAP1 PUSH2 0x100 EXP SWAP1 DIV PUSH20 0xFFFFFFFFFFFFFFFFFFFFFFFFFFFFFFFFFFFFFFFF AND PUSH20 0xFFFFFFFFFFFFFFFFFFFFFFFFFFFFFFFFFFFFFFFF AND PUSH20 0xFFFFFFFFFFFFFFFFFFFFFFFFFFFFFFFFFFFFFFFF AND DUP2 MSTORE PUSH1 0x20 ADD PUSH1 0x2 DUP3 ADD SLOAD DUP2 MSTORE PUSH1 0x20 ADD PUSH1 0x3 DUP3 ADD DUP1 SLOAD PUSH2 0xED7 SWAP1 PUSH2 0x1C51 JUMP JUMPDEST DUP1 PUSH1 0x1F ADD PUSH1 0x20 DUP1 SWAP2 DIV MUL PUSH1 0x20 ADD PUSH1 0x40 MLOAD SWAP1 DUP2 ADD PUSH1 0x40 MSTORE DUP1 SWAP3 SWAP2 SWAP1 DUP2 DUP2 MSTORE PUSH1 0x20 ADD DUP3 DUP1 SLOAD PUSH2 0xF03 SWAP1 PUSH2 0x1C51 JUMP JUMPDEST DUP1 ISZERO PUSH2 0xF50 JUMPI DUP1 PUSH1 0x1F LT PUSH2 0xF25 JUMPI PUSH2 0x100 DUP1 DUP4 SLOAD DIV MUL DUP4 MSTORE SWAP2 PUSH1 0x20 ADD SWAP2 PUSH2 0xF50 JUMP JUMPDEST DUP3 ADD SWAP2 SWAP1 PUSH1 0x0 MSTORE PUSH1 0x20 PUSH1 0x0 KECCAK256 SWAP1 JUMPDEST DUP2 SLOAD DUP2 MSTORE SWAP1 PUSH1 0x1 ADD SWAP1 PUSH1 0x20 ADD DUP1 DUP4 GT PUSH2 0xF33 JUMPI DUP3 SWAP1 SUB PUSH1 0x1F AND DUP3 ADD SWAP2 JUMPDEST POP POP POP POP POP DUP2 MSTORE PUSH1 0x20 ADD PUSH1 0x4 DUP3 ADD DUP1 SLOAD PUSH2 0xF69 SWAP1 PUSH2 0x1C51 JUMP JUMPDEST DUP1 PUSH1 0x1F ADD PUSH1 0x20 DUP1 SWAP2 DIV MUL PUSH1 0x20 ADD PUSH1 0x40 MLOAD SWAP1 DUP2 ADD PUSH1 0x40 MSTORE DUP1 SWAP3 SWAP2 SWAP1 DUP2 DUP2 MSTORE PUSH1 0x20 ADD DUP3 DUP1 SLOAD PUSH2 0xF95 SWAP1 PUSH2 0x1C51 JUMP JUMPDEST DUP1 ISZERO PUSH2 0xFE2 JUMPI DUP1 PUSH1 0x1F LT PUSH2 0xFB7 JUMPI PUSH2 0x100 DUP1 DUP4 SLOAD DIV MUL DUP4 MSTORE SWAP2 PUSH1 0x20 ADD SWAP2 PUSH2 0xFE2 JUMP JUMPDEST DUP3 ADD SWAP2 SWAP1 PUSH1 0x0 MSTORE PUSH1 0x20 PUSH1 0x0 KECCAK256 SWAP1 JUMPDEST DUP2 SLOAD DUP2 MSTORE SWAP1 PUSH1 0x1 ADD SWAP1 PUSH1 0x20 ADD DUP1 DUP4 GT PUSH2 0xFC5 JUMPI DUP3 SWAP1 SUB PUSH1 0x1F AND DUP3 ADD SWAP2 JUMPDEST POP POP POP POP POP DUP2 MSTORE PUSH1 0x20 ADD PUSH1 0x5 DUP3 ADD SLOAD DUP2 MSTORE PUSH1 0x20 ADD PUSH1 0x6 DUP3 ADD PUSH1 0x0 SWAP1 SLOAD SWAP1 PUSH2 0x100 EXP SWAP1 DIV PUSH1 0xFF AND PUSH1 0x2 DUP2 GT ISZERO PUSH2 0x101A JUMPI PUSH2 0x1019 PUSH2 0x15F3 JUMP JUMPDEST JUMPDEST PUSH1 0x2 DUP2 GT ISZERO PUSH2 0x102C JUMPI PUSH2 0x102B PUSH2 0x15F3 JUMP JUMPDEST JUMPDEST DUP2 MSTORE POP POP DUP4 DUP4 DUP2 MLOAD DUP2 LT PUSH2 0x1043 JUMPI PUSH2 0x1042 PUSH2 0x1FA7 JUMP JUMPDEST JUMPDEST PUSH1 0x20 MUL PUSH1 0x20 ADD ADD DUP2 SWAP1 MSTORE POP DUP2 DUP1 PUSH2 0x1059 SWAP1 PUSH2 0x1F5F JUMP JUMPDEST SWAP3 POP POP JUMPDEST DUP1 DUP1 PUSH2 0x1068 SWAP1 PUSH2 0x1F5F JUMP JUMPDEST SWAP2 POP POP PUSH2 0xDCD JUMP JUMPDEST POP DUP2 SWAP4 POP POP POP POP SWAP1 JUMP JUMPDEST PUSH1 0x0 DUP1 DUP3 GT DUP1 ISZERO PUSH2 0x108D JUMPI POP PUSH1 0x0 SLOAD DUP3 GT ISZERO JUMPDEST PUSH2 0x10CC JUMPI PUSH1 0x40 MLOAD PUSH32 0x8C379A000000000000000000000000000000000000000000000000000000000 DUP2 MSTORE PUSH1 0x4 ADD PUSH2 0x10C3 SWAP1 PUSH2 0x2022 JUMP JUMPDEST PUSH1 0x40 MLOAD DUP1 SWAP2 SUB SWAP1 REVERT JUMPDEST PUSH1 0x3 PUSH1 0x0 DUP4 DUP2 MSTORE PUSH1 0x20 ADD SWAP1 DUP2 MSTORE PUSH1 0x20 ADD PUSH1 0x0 KECCAK256 PUSH1 0x6 ADD PUSH1 0x0 SWAP1 SLOAD SWAP1 PUSH2 0x100 EXP SWAP1 DIV PUSH1 0xFF AND SWAP1 POP SWAP2 SWAP1 POP JUMP JUMPDEST PUSH1 0x0 PUSH20 0xFFFFFFFFFFFFFFFFFFFFFFFFFFFFFFFFFFFFFFFF AND PUSH1 0x1 PUSH1 0x0 DUP7 DUP2 MSTORE PUSH1 0x20 ADD SWAP1 DUP2 MSTORE PUSH1 0x20 ADD PUSH1 0x0 KECCAK256 PUSH1 0x6 ADD PUSH1 0x0 SWAP1 SLOAD SWAP1 PUSH2 0x100 EXP SWAP1 DIV PUSH20 0xFFFFFFFFFFFFFFFFFFFFFFFFFFFFFFFFFFFFFFFF AND PUSH20 0xFFFFFFFFFFFFFFFFFFFFFFFFFFFFFFFFFFFFFFFF AND SUB PUSH2 0x119C JUMPI PUSH1 0x40 MLOAD PUSH32 0x8C379A000000000000000000000000000000000000000000000000000000000 DUP2 MSTORE PUSH1 0x4 ADD PUSH2 0x1193 SWAP1 PUSH2 0x208E JUMP JUMPDEST PUSH1 0x40 MLOAD DUP1 SWAP2 SUB SWAP1 REVERT JUMPDEST PUSH1 0x0 DUP1 DUP2 SLOAD DUP1 SWAP3 SWAP2 SWAP1 PUSH2 0x11AE SWAP1 PUSH2 0x1F5F JUMP JUMPDEST SWAP2 SWAP1 POP SSTORE POP PUSH1 0x40 MLOAD DUP1 PUSH1 0xE0 ADD PUSH1 0x40 MSTORE DUP1 PUSH1 0x0 SLOAD DUP2 MSTORE PUSH1 0x20 ADD CALLER PUSH20 0xFFFFFFFFFFFFFFFFFFFFFFFFFFFFFFFFFFFFFFFF AND DUP2 MSTORE PUSH1 0x20 ADD DUP6 DUP2 MSTORE PUSH1 0x20 ADD DUP5 DUP2 MSTORE PUSH1 0x20 ADD DUP4 DUP2 MSTORE PUSH1 0x20 ADD DUP3 DUP2 MSTORE PUSH1 0x20 ADD PUSH1 0x0 PUSH1 0x2 DUP2 GT ISZERO PUSH2 0x120E JUMPI PUSH2 0x120D PUSH2 0x15F3 JUMP JUMPDEST JUMPDEST DUP2 MSTORE POP PUSH1 0x3 PUSH1 0x0 DUP1 SLOAD DUP2 MSTORE PUSH1 0x20 ADD SWAP1 DUP2 MSTORE PUSH1 0x20 ADD PUSH1 0x0 KECCAK256 PUSH1 0x0 DUP3 ADD MLOAD DUP2 PUSH1 0x0 ADD SSTORE PUSH1 0x20 DUP3 ADD MLOAD DUP2 PUSH1 0x1 ADD PUSH1 0x0 PUSH2 0x100 EXP DUP2 SLOAD DUP2 PUSH20 0xFFFFFFFFFFFFFFFFFFFFFFFFFFFFFFFFFFFFFFFF MUL NOT AND SWAP1 DUP4 PUSH20 0xFFFFFFFFFFFFFFFFFFFFFFFFFFFFFFFFFFFFFFFF AND MUL OR SWAP1 SSTORE POP PUSH1 0x40 DUP3 ADD MLOAD DUP2 PUSH1 0x2 ADD SSTORE PUSH1 0x60 DUP3 ADD MLOAD DUP2 PUSH1 0x3 ADD SWAP1 DUP2 PUSH2 0x1295 SWAP2 SWAP1 PUSH2 0x1E2E JUMP JUMPDEST POP PUSH1 0x80 DUP3 ADD MLOAD DUP2 PUSH1 0x4 ADD SWAP1 DUP2 PUSH2 0x12AB SWAP2 SWAP1 PUSH2 0x1E2E JUMP JUMPDEST POP PUSH1 0xA0 DUP3 ADD MLOAD DUP2 PUSH1 0x5 ADD SSTORE PUSH1 0xC0 DUP3 ADD MLOAD DUP2 PUSH1 0x6 ADD PUSH1 0x0 PUSH2 0x100 EXP DUP2 SLOAD DUP2 PUSH1 0xFF MUL NOT AND SWAP1 DUP4 PUSH1 0x2 DUP2 GT ISZERO PUSH2 0x12E1 JUMPI PUSH2 0x12E0 PUSH2 0x15F3 JUMP JUMPDEST JUMPDEST MUL OR SWAP1 SSTORE POP SWAP1 POP POP PUSH32 0xF69F1C2AC0E4149C0EEE1FD99397E28AF68BD7E2B0C8A1D3A4A72E52C60086C7 PUSH1 0x0 SLOAD CALLER DUP7 DUP5 PUSH1 0x40 MLOAD PUSH2 0x1320 SWAP5 SWAP4 SWAP3 SWAP2 SWAP1 PUSH2 0x20AE JUMP JUMPDEST PUSH1 0x40 MLOAD DUP1 SWAP2 SUB SWAP1 LOG1 POP POP POP POP JUMP JUMPDEST PUSH1 0x0 SLOAD DUP2 JUMP JUMPDEST PUSH1 0x40 MLOAD DUP1 PUSH1 0xE0 ADD PUSH1 0x40 MSTORE DUP1 PUSH1 0x0 DUP2 MSTORE PUSH1 0x20 ADD PUSH1 0x0 PUSH20 0xFFFFFFFFFFFFFFFFFFFFFFFFFFFFFFFFFFFFFFFF AND DUP2 MSTORE PUSH1 0x20 ADD PUSH1 0x0 DUP2 MSTORE PUSH1 0x20 ADD PUSH1 0x60 DUP2 MSTORE PUSH1 0x20 ADD PUSH1 0x60 DUP2 MSTORE PUSH1 0x20 ADD PUSH1 0x0 DUP2 MSTORE PUSH1 0x20 ADD PUSH1 0x0 PUSH1 0x2 DUP2 GT ISZERO PUSH2 0x1393 JUMPI PUSH2 0x1392 PUSH2 0x15F3 JUMP JUMPDEST JUMPDEST DUP2 MSTORE POP SWAP1 JUMP JUMPDEST PUSH1 0x0 PUSH1 0x40 MLOAD SWAP1 POP SWAP1 JUMP JUMPDEST PUSH1 0x0 DUP1 REVERT JUMPDEST PUSH1 0x0 DUP1 REVERT JUMPDEST PUSH1 0x0 DUP2 SWAP1 POP SWAP2 SWAP1 POP JUMP JUMPDEST PUSH2 0x13C0 DUP2 PUSH2 0x13AD JUMP JUMPDEST DUP2 EQ PUSH2 0x13CB JUMPI PUSH1 0x0 DUP1 REVERT JUMPDEST POP JUMP JUMPDEST PUSH1 0x0 DUP2 CALLDATALOAD SWAP1 POP PUSH2 0x13DD DUP2 PUSH2 0x13B7 JUMP JUMPDEST SWAP3 SWAP2 POP POP JUMP JUMPDEST PUSH1 0x3 DUP2 LT PUSH2 0x13F0 JUMPI PUSH1 0x0 DUP1 REVERT JUMPDEST POP JUMP JUMPDEST PUSH1 0x0 DUP2 CALLDATALOAD SWAP1 POP PUSH2 0x1402 DUP2 PUSH2 0x13E3 JUMP JUMPDEST SWAP3 SWAP2 POP POP JUMP JUMPDEST PUSH1 0x0 DUP1 PUSH1 0x40 DUP4 DUP6 SUB SLT ISZERO PUSH2 0x141F JUMPI PUSH2 0x141E PUSH2 0x13A3 JUMP JUMPDEST JUMPDEST PUSH1 0x0 PUSH2 0x142D DUP6 DUP3 DUP7 ADD PUSH2 0x13CE JUMP JUMPDEST SWAP3 POP POP PUSH1 0x20 PUSH2 0x143E DUP6 DUP3 DUP7 ADD PUSH2 0x13F3 JUMP JUMPDEST SWAP2 POP POP SWAP3 POP SWAP3 SWAP1 POP JUMP JUMPDEST PUSH1 0x0 PUSH20 0xFFFFFFFFFFFFFFFFFFFFFFFFFFFFFFFFFFFFFFFF DUP3 AND SWAP1 POP SWAP2 SWAP1 POP JUMP JUMPDEST PUSH1 0x0 PUSH2 0x1473 DUP3 PUSH2 0x1448 JUMP JUMPDEST SWAP1 POP SWAP2 SWAP1 POP JUMP JUMPDEST PUSH2 0x1483 DUP2 PUSH2 0x1468 JUMP JUMPDEST DUP2 EQ PUSH2 0x148E JUMPI PUSH1 0x0 DUP1 REVERT JUMPDEST POP JUMP JUMPDEST PUSH1 0x0 DUP2 CALLDATALOAD SWAP1 POP PUSH2 0x14A0 DUP2 PUSH2 0x147A JUMP JUMPDEST SWAP3 SWAP2 POP POP JUMP JUMPDEST PUSH1 0x0 PUSH1 0x20 DUP3 DUP5 SUB SLT ISZERO PUSH2 0x14BC JUMPI PUSH2 0x14BB PUSH2 0x13A3 JUMP JUMPDEST JUMPDEST PUSH1 0x0 PUSH2 0x14CA DUP5 DUP3 DUP6 ADD PUSH2 0x1491 JUMP JUMPDEST SWAP2 POP POP SWAP3 SWAP2 POP POP JUMP JUMPDEST PUSH2 0x14DC DUP2 PUSH2 0x1468 JUMP JUMPDEST DUP3 MSTORE POP POP JUMP JUMPDEST PUSH1 0x0 DUP2 MLOAD SWAP1 POP SWAP2 SWAP1 POP JUMP JUMPDEST PUSH1 0x0 DUP3 DUP3 MSTORE PUSH1 0x20 DUP3 ADD SWAP1 POP SWAP3 SWAP2 POP POP JUMP JUMPDEST PUSH1 0x0 JUMPDEST DUP4 DUP2 LT ISZERO PUSH2 0x151C JUMPI DUP1 DUP3 ADD MLOAD DUP2 DUP5 ADD MSTORE PUSH1 0x20 DUP2 ADD SWAP1 POP PUSH2 0x1501 JUMP JUMPDEST PUSH1 0x0 DUP5 DUP5 ADD MSTORE POP POP POP POP JUMP JUMPDEST PUSH1 0x0 PUSH1 0x1F NOT PUSH1 0x1F DUP4 ADD AND SWAP1 POP SWAP2 SWAP1 POP JUMP JUMPDEST PUSH1 0x0 PUSH2 0x1544 DUP3 PUSH2 0x14E2 JUMP JUMPDEST PUSH2 0x154E DUP2 DUP6 PUSH2 0x14ED JUMP JUMPDEST SWAP4 POP PUSH2 0x155E DUP2 DUP6 PUSH1 0x20 DUP7 ADD PUSH2 0x14FE JUMP JUMPDEST PUSH2 0x1567 DUP2 PUSH2 0x1528 JUMP JUMPDEST DUP5 ADD SWAP2 POP POP SWAP3 SWAP2 POP POP JUMP JUMPDEST PUSH1 0x0 PUSH1 0x60 DUP3 ADD SWAP1 POP PUSH2 0x1587 PUSH1 0x0 DUP4 ADD DUP7 PUSH2 0x14D3 JUMP JUMPDEST DUP2 DUP2 SUB PUSH1 0x20 DUP4 ADD MSTORE PUSH2 0x1599 DUP2 DUP6 PUSH2 0x1539 JUMP JUMPDEST SWAP1 POP DUP2 DUP2 SUB PUSH1 0x40 DUP4 ADD MSTORE PUSH2 0x15AD DUP2 DUP5 PUSH2 0x1539 JUMP JUMPDEST SWAP1 POP SWAP5 SWAP4 POP POP POP POP JUMP JUMPDEST PUSH1 0x0 PUSH1 0x20 DUP3 DUP5 SUB SLT ISZERO PUSH2 0x15CD JUMPI PUSH2 0x15CC PUSH2 0x13A3 JUMP JUMPDEST JUMPDEST PUSH1 0x0 PUSH2 0x15DB DUP5 DUP3 DUP6 ADD PUSH2 0x13CE JUMP JUMPDEST SWAP2 POP POP SWAP3 SWAP2 POP POP JUMP JUMPDEST PUSH2 0x15ED DUP2 PUSH2 0x13AD JUMP JUMPDEST DUP3 MSTORE POP POP JUMP JUMPDEST PUSH32 0x4E487B7100000000000000000000000000000000000000000000000000000000 PUSH1 0x0 MSTORE PUSH1 0x21 PUSH1 0x4 MSTORE PUSH1 0x24 PUSH1 0x0 REVERT JUMPDEST PUSH1 0x3 DUP2 LT PUSH2 0x1633 JUMPI PUSH2 0x1632 PUSH2 0x15F3 JUMP JUMPDEST JUMPDEST POP JUMP JUMPDEST PUSH1 0x0 DUP2 SWAP1 POP PUSH2 0x1644 DUP3 PUSH2 0x1622 JUMP JUMPDEST SWAP2 SWAP1 POP JUMP JUMPDEST PUSH1 0x0 PUSH2 0x1654 DUP3 PUSH2 0x1636 JUMP JUMPDEST SWAP1 POP SWAP2 SWAP1 POP JUMP JUMPDEST PUSH2 0x1664 DUP2 PUSH2 0x1649 JUMP JUMPDEST DUP3 MSTORE POP POP JUMP JUMPDEST PUSH1 0x0 PUSH1 0xE0 DUP3 ADD SWAP1 POP PUSH2 0x167F PUSH1 0x0 DUP4 ADD DUP11 PUSH2 0x15E4 JUMP JUMPDEST PUSH2 0x168C PUSH1 0x20 DUP4 ADD DUP10 PUSH2 0x14D3 JUMP JUMPDEST PUSH2 0x1699 PUSH1 0x40 DUP4 ADD DUP9 PUSH2 0x15E4 JUMP JUMPDEST DUP2 DUP2 SUB PUSH1 0x60 DUP4 ADD MSTORE PUSH2 0x16AB DUP2 DUP8 PUSH2 0x1539 JUMP JUMPDEST SWAP1 POP DUP2 DUP2 SUB PUSH1 0x80 DUP4 ADD MSTORE PUSH2 0x16BF DUP2 DUP7 PUSH2 0x1539 JUMP JUMPDEST SWAP1 POP PUSH2 0x16CE PUSH1 0xA0 DUP4 ADD DUP6 PUSH2 0x15E4 JUMP JUMPDEST PUSH2 0x16DB PUSH1 0xC0 DUP4 ADD DUP5 PUSH2 0x165B JUMP JUMPDEST SWAP9 SWAP8 POP POP POP POP POP POP POP POP JUMP JUMPDEST PUSH1 0x0 PUSH1 0xE0 DUP3 ADD SWAP1 POP PUSH2 0x16FC PUSH1 0x0 DUP4 ADD DUP11 PUSH2 0x15E4 JUMP JUMPDEST DUP2 DUP2 SUB PUSH1 0x20 DUP4 ADD MSTORE PUSH2 0x170E DUP2 DUP10 PUSH2 0x1539 JUMP JUMPDEST SWAP1 POP DUP2 DUP2 SUB PUSH1 0x40 DUP4 ADD MSTORE PUSH2 0x1722 DUP2 DUP9 PUSH2 0x1539 JUMP JUMPDEST SWAP1 POP DUP2 DUP2 SUB PUSH1 0x60 DUP4 ADD MSTORE PUSH2 0x1736 DUP2 DUP8 PUSH2 0x1539 JUMP JUMPDEST SWAP1 POP DUP2 DUP2 SUB PUSH1 0x80 DUP4 ADD MSTORE PUSH2 0x174A DUP2 DUP7 PUSH2 0x1539 JUMP JUMPDEST SWAP1 POP DUP2 DUP2 SUB PUSH1 0xA0 DUP4 ADD MSTORE PUSH2 0x175E DUP2 DUP6 PUSH2 0x1539 JUMP JUMPDEST SWAP1 POP PUSH2 0x176D PUSH1 0xC0 DUP4 ADD DUP5 PUSH2 0x14D3 JUMP JUMPDEST SWAP9 SWAP8 POP POP POP POP POP POP POP POP JUMP JUMPDEST PUSH1 0x0 DUP1 REVERT JUMPDEST PUSH1 0x0 DUP1 REVERT JUMPDEST PUSH32 0x4E487B7100000000000000000000000000000000000000000000000000000000 PUSH1 0x0 MSTORE PUSH1 0x41 PUSH1 0x4 MSTORE PUSH1 0x24 PUSH1 0x0 REVERT JUMPDEST PUSH2 0x17BB DUP3 PUSH2 0x1528 JUMP JUMPDEST DUP2 ADD DUP2 DUP2 LT PUSH8 0xFFFFFFFFFFFFFFFF DUP3 GT OR ISZERO PUSH2 0x17DA JUMPI PUSH2 0x17D9 PUSH2 0x1783 JUMP JUMPDEST JUMPDEST DUP1 PUSH1 0x40 MSTORE POP POP POP JUMP JUMPDEST PUSH1 0x0 PUSH2 0x17ED PUSH2 0x1399 JUMP JUMPDEST SWAP1 POP PUSH2 0x17F9 DUP3 DUP3 PUSH2 0x17B2 JUMP JUMPDEST SWAP2 SWAP1 POP JUMP JUMPDEST PUSH1 0x0 PUSH8 0xFFFFFFFFFFFFFFFF DUP3 GT ISZERO PUSH2 0x1819 JUMPI PUSH2 0x1818 PUSH2 0x1783 JUMP JUMPDEST JUMPDEST PUSH2 0x1822 DUP3 PUSH2 0x1528 JUMP JUMPDEST SWAP1 POP PUSH1 0x20 DUP2 ADD SWAP1 POP SWAP2 SWAP1 POP JUMP JUMPDEST DUP3 DUP2 DUP4 CALLDATACOPY PUSH1 0x0 DUP4 DUP4 ADD MSTORE POP POP POP JUMP JUMPDEST PUSH1 0x0 PUSH2 0x1851 PUSH2 0x184C DUP5 PUSH2 0x17FE JUMP JUMPDEST PUSH2 0x17E3 JUMP JUMPDEST SWAP1 POP DUP3 DUP2 MSTORE PUSH1 0x20 DUP2 ADD DUP5 DUP5 DUP5 ADD GT ISZERO PUSH2 0x186D JUMPI PUSH2 0x186C PUSH2 0x177E JUMP JUMPDEST JUMPDEST PUSH2 0x1878 DUP5 DUP3 DUP6 PUSH2 0x182F JUMP JUMPDEST POP SWAP4 SWAP3 POP POP POP JUMP JUMPDEST PUSH1 0x0 DUP3 PUSH1 0x1F DUP4 ADD SLT PUSH2 0x1895 JUMPI PUSH2 0x1894 PUSH2 0x1779 JUMP JUMPDEST JUMPDEST DUP2 CALLDATALOAD PUSH2 0x18A5 DUP5 DUP3 PUSH1 0x20 DUP7 ADD PUSH2 0x183E JUMP JUMPDEST SWAP2 POP POP SWAP3 SWAP2 POP POP JUMP JUMPDEST PUSH1 0x0 DUP1 PUSH1 0x40 DUP4 DUP6 SUB SLT ISZERO PUSH2 0x18C5 JUMPI PUSH2 0x18C4 PUSH2 0x13A3 JUMP JUMPDEST JUMPDEST PUSH1 0x0 DUP4 ADD CALLDATALOAD PUSH8 0xFFFFFFFFFFFFFFFF DUP2 GT ISZERO PUSH2 0x18E3 JUMPI PUSH2 0x18E2 PUSH2 0x13A8 JUMP JUMPDEST JUMPDEST PUSH2 0x18EF DUP6 DUP3 DUP7 ADD PUSH2 0x1880 JUMP JUMPDEST SWAP3 POP POP PUSH1 0x20 DUP4 ADD CALLDATALOAD PUSH8 0xFFFFFFFFFFFFFFFF DUP2 GT ISZERO PUSH2 0x1910 JUMPI PUSH2 0x190F PUSH2 0x13A8 JUMP JUMPDEST JUMPDEST PUSH2 0x191C DUP6 DUP3 DUP7 ADD PUSH2 0x1880 JUMP JUMPDEST SWAP2 POP POP SWAP3 POP SWAP3 SWAP1 POP JUMP JUMPDEST PUSH1 0x0 DUP2 MLOAD SWAP1 POP SWAP2 SWAP1 POP JUMP JUMPDEST PUSH1 0x0 DUP3 DUP3 MSTORE PUSH1 0x20 DUP3 ADD SWAP1 POP SWAP3 SWAP2 POP POP JUMP JUMPDEST PUSH1 0x0 DUP2 SWAP1 POP PUSH1 0x20 DUP3 ADD SWAP1 POP SWAP2 SWAP1 POP JUMP JUMPDEST PUSH2 0x195B DUP2 PUSH2 0x13AD JUMP JUMPDEST DUP3 MSTORE POP POP JUMP JUMPDEST PUSH2 0x196A DUP2 PUSH2 0x1468 JUMP JUMPDEST DUP3 MSTORE POP POP JUMP JUMPDEST PUSH1 0x0 DUP3 DUP3 MSTORE PUSH1 0x20 DUP3 ADD SWAP1 POP SWAP3 SWAP2 POP POP JUMP JUMPDEST PUSH1 0x0 PUSH2 0x198C DUP3 PUSH2 0x14E2 JUMP JUMPDEST PUSH2 0x1996 DUP2 DUP6 PUSH2 0x1970 JUMP JUMPDEST SWAP4 POP PUSH2 0x19A6 DUP2 DUP6 PUSH1 0x20 DUP7 ADD PUSH2 0x14FE JUMP JUMPDEST PUSH2 0x19AF DUP2 PUSH2 0x1528 JUMP JUMPDEST DUP5 ADD SWAP2 POP POP SWAP3 SWAP2 POP POP JUMP JUMPDEST PUSH2 0x19C3 DUP2 PUSH2 0x1649 JUMP JUMPDEST DUP3 MSTORE POP POP JUMP JUMPDEST PUSH1 0x0 PUSH1 0xE0 DUP4 ADD PUSH1 0x0 DUP4 ADD MLOAD PUSH2 0x19E1 PUSH1 0x0 DUP7 ADD DUP3 PUSH2 0x1952 JUMP JUMPDEST POP PUSH1 0x20 DUP4 ADD MLOAD PUSH2 0x19F4 PUSH1 0x20 DUP7 ADD DUP3 PUSH2 0x1961 JUMP JUMPDEST POP PUSH1 0x40 DUP4 ADD MLOAD PUSH2 0x1A07 PUSH1 0x40 DUP7 ADD DUP3 PUSH2 0x1952 JUMP JUMPDEST POP PUSH1 0x60 DUP4 ADD MLOAD DUP5 DUP3 SUB PUSH1 0x60 DUP7 ADD MSTORE PUSH2 0x1A1F DUP3 DUP3 PUSH2 0x1981 JUMP JUMPDEST SWAP2 POP POP PUSH1 0x80 DUP4 ADD MLOAD DUP5 DUP3 SUB PUSH1 0x80 DUP7 ADD MSTORE PUSH2 0x1A39 DUP3 DUP3 PUSH2 0x1981 JUMP JUMPDEST SWAP2 POP POP PUSH1 0xA0 DUP4 ADD MLOAD PUSH2 0x1A4E PUSH1 0xA0 DUP7 ADD DUP3 PUSH2 0x1952 JUMP JUMPDEST POP PUSH1 0xC0 DUP4 ADD MLOAD PUSH2 0x1A61 PUSH1 0xC0 DUP7 ADD DUP3 PUSH2 0x19BA JUMP JUMPDEST POP DUP1 SWAP2 POP POP SWAP3 SWAP2 POP POP JUMP JUMPDEST PUSH1 0x0 PUSH2 0x1A78 DUP4 DUP4 PUSH2 0x19C9 JUMP JUMPDEST SWAP1 POP SWAP3 SWAP2 POP POP JUMP JUMPDEST PUSH1 0x0 PUSH1 0x20 DUP3 ADD SWAP1 POP SWAP2 SWAP1 POP JUMP JUMPDEST PUSH1 0x0 PUSH2 0x1A98 DUP3 PUSH2 0x1926 JUMP JUMPDEST PUSH2 0x1AA2 DUP2 DUP6 PUSH2 0x1931 JUMP JUMPDEST SWAP4 POP DUP4 PUSH1 0x20 DUP3 MUL DUP6 ADD PUSH2 0x1AB4 DUP6 PUSH2 0x1942 JUMP JUMPDEST DUP1 PUSH1 0x0 JUMPDEST DUP6 DUP2 LT ISZERO PUSH2 0x1AF0 JUMPI DUP5 DUP5 SUB DUP10 MSTORE DUP2 MLOAD PUSH2 0x1AD1 DUP6 DUP3 PUSH2 0x1A6C JUMP JUMPDEST SWAP5 POP PUSH2 0x1ADC DUP4 PUSH2 0x1A80 JUMP JUMPDEST SWAP3 POP PUSH1 0x20 DUP11 ADD SWAP10 POP POP PUSH1 0x1 DUP2 ADD SWAP1 POP PUSH2 0x1AB8 JUMP JUMPDEST POP DUP3 SWAP8 POP DUP8 SWAP6 POP POP POP POP POP POP SWAP3 SWAP2 POP POP JUMP JUMPDEST PUSH1 0x0 PUSH1 0x20 DUP3 ADD SWAP1 POP DUP2 DUP2 SUB PUSH1 0x0 DUP4 ADD MSTORE PUSH2 0x1B1C DUP2 DUP5 PUSH2 0x1A8D JUMP JUMPDEST SWAP1 POP SWAP3 SWAP2 POP POP JUMP JUMPDEST PUSH1 0x0 PUSH1 0x20 DUP3 ADD SWAP1 POP PUSH2 0x1B39 PUSH1 0x0 DUP4 ADD DUP5 PUSH2 0x165B JUMP JUMPDEST SWAP3 SWAP2 POP POP JUMP JUMPDEST PUSH1 0x0 DUP1 PUSH1 0x0 DUP1 PUSH1 0x80 DUP6 DUP8 SUB SLT ISZERO PUSH2 0x1B59 JUMPI PUSH2 0x1B58 PUSH2 0x13A3 JUMP JUMPDEST JUMPDEST PUSH1 0x0 PUSH2 0x1B67 DUP8 DUP3 DUP9 ADD PUSH2 0x13CE JUMP JUMPDEST SWAP5 POP POP PUSH1 0x20 DUP6 ADD CALLDATALOAD PUSH8 0xFFFFFFFFFFFFFFFF DUP2 GT ISZERO PUSH2 0x1B88 JUMPI PUSH2 0x1B87 PUSH2 0x13A8 JUMP JUMPDEST JUMPDEST PUSH2 0x1B94 DUP8 DUP3 DUP9 ADD PUSH2 0x1880 JUMP JUMPDEST SWAP4 POP POP PUSH1 0x40 DUP6 ADD CALLDATALOAD PUSH8 0xFFFFFFFFFFFFFFFF DUP2 GT ISZERO PUSH2 0x1BB5 JUMPI PUSH2 0x1BB4 PUSH2 0x13A8 JUMP JUMPDEST JUMPDEST PUSH2 0x1BC1 DUP8 DUP3 DUP9 ADD PUSH2 0x1880 JUMP JUMPDEST SWAP3 POP POP PUSH1 0x60 PUSH2 0x1BD2 DUP8 DUP3 DUP9 ADD PUSH2 0x13CE JUMP JUMPDEST SWAP2 POP POP SWAP3 SWAP6 SWAP2 SWAP5 POP SWAP3 POP JUMP JUMPDEST PUSH1 0x0 PUSH1 0x20 DUP3 ADD SWAP1 POP PUSH2 0x1BF3 PUSH1 0x0 DUP4 ADD DUP5 PUSH2 0x15E4 JUMP JUMPDEST SWAP3 SWAP2 POP POP JUMP JUMPDEST PUSH1 0x0 PUSH1 0x40 DUP3 ADD SWAP1 POP PUSH2 0x1C0E PUSH1 0x0 DUP4 ADD DUP6 PUSH2 0x15E4 JUMP JUMPDEST PUSH2 0x1C1B PUSH1 0x20 DUP4 ADD DUP5 PUSH2 0x165B JUMP JUMPDEST SWAP4 SWAP3 POP POP POP JUMP JUMPDEST PUSH32 0x4E487B7100000000000000000000000000000000000000000000000000000000 PUSH1 0x0 MSTORE PUSH1 0x22 PUSH1 0x4 MSTORE PUSH1 0x24 PUSH1 0x0 REVERT JUMPDEST PUSH1 0x0 PUSH1 0x2 DUP3 DIV SWAP1 POP PUSH1 0x1 DUP3 AND DUP1 PUSH2 0x1C69 JUMPI PUSH1 0x7F DUP3 AND SWAP2 POP JUMPDEST PUSH1 0x20 DUP3 LT DUP2 SUB PUSH2 0x1C7C JUMPI PUSH2 0x1C7B PUSH2 0x1C22 JUMP JUMPDEST JUMPDEST POP SWAP2 SWAP1 POP JUMP JUMPDEST PUSH1 0x0 DUP2 SWAP1 POP DUP2 PUSH1 0x0 MSTORE PUSH1 0x20 PUSH1 0x0 KECCAK256 SWAP1 POP SWAP2 SWAP1 POP JUMP JUMPDEST PUSH1 0x0 PUSH1 0x20 PUSH1 0x1F DUP4 ADD DIV SWAP1 POP SWAP2 SWAP1 POP JUMP JUMPDEST PUSH1 0x0 DUP3 DUP3 SHL SWAP1 POP SWAP3 SWAP2 POP POP JUMP JUMPDEST PUSH1 0x0 PUSH1 0x8 DUP4 MUL PUSH2 0x1CE4 PUSH32 0xFFFFFFFFFFFFFFFFFFFFFFFFFFFFFFFFFFFFFFFFFFFFFFFFFFFFFFFFFFFFFFFF DUP3 PUSH2 0x1CA7 JUMP JUMPDEST PUSH2 0x1CEE DUP7 DUP4 PUSH2 0x1CA7 JUMP JUMPDEST SWAP6 POP DUP1 NOT DUP5 AND SWAP4 POP DUP1 DUP7 AND DUP5 OR SWAP3 POP POP POP SWAP4 SWAP3 POP POP POP JUMP JUMPDEST PUSH1 0x0 DUP2 SWAP1 POP SWAP2 SWAP1 POP JUMP JUMPDEST PUSH1 0x0 PUSH2 0x1D2B PUSH2 0x1D26 PUSH2 0x1D21 DUP5 PUSH2 0x13AD JUMP JUMPDEST PUSH2 0x1D06 JUMP JUMPDEST PUSH2 0x13AD JUMP JUMPDEST SWAP1 POP SWAP2 SWAP1 POP JUMP JUMPDEST PUSH1 0x0 DUP2 SWAP1 POP SWAP2 SWAP1 POP JUMP JUMPDEST PUSH2 0x1D45 DUP4 PUSH2 0x1D10 JUMP JUMPDEST PUSH2 0x1D59 PUSH2 0x1D51 DUP3 PUSH2 0x1D32 JUMP JUMPDEST DUP5 DUP5 SLOAD PUSH2 0x1CB4 JUMP JUMPDEST DUP3 SSTORE POP POP POP POP JUMP JUMPDEST PUSH1 0x0 SWAP1 JUMP JUMPDEST PUSH2 0x1D6E PUSH2 0x1D61 JUMP JUMPDEST PUSH2 0x1D79 DUP2 DUP5 DUP5 PUSH2 0x1D3C JUMP JUMPDEST POP POP POP JUMP JUMPDEST JUMPDEST DUP2 DUP2 LT ISZERO PUSH2 0x1D9D JUMPI PUSH2 0x1D92 PUSH1 0x0 DUP3 PUSH2 0x1D66 JUMP JUMPDEST PUSH1 0x1 DUP2 ADD SWAP1 POP PUSH2 0x1D7F JUMP JUMPDEST POP POP JUMP JUMPDEST PUSH1 0x1F DUP3 GT ISZERO PUSH2 0x1DE2 JUMPI PUSH2 0x1DB3 DUP2 PUSH2 0x1C82 JUMP JUMPDEST PUSH2 0x1DBC DUP5 PUSH2 0x1C97 JUMP JUMPDEST DUP2 ADD PUSH1 0x20 DUP6 LT ISZERO PUSH2 0x1DCB JUMPI DUP2 SWAP1 POP JUMPDEST PUSH2 0x1DDF PUSH2 0x1DD7 DUP6 PUSH2 0x1C97 JUMP JUMPDEST DUP4 ADD DUP3 PUSH2 0x1D7E JUMP JUMPDEST POP POP JUMPDEST POP POP POP JUMP JUMPDEST PUSH1 0x0 DUP3 DUP3 SHR SWAP1 POP SWAP3 SWAP2 POP POP JUMP JUMPDEST PUSH1 0x0 PUSH2 0x1E05 PUSH1 0x0 NOT DUP5 PUSH1 0x8 MUL PUSH2 0x1DE7 JUMP JUMPDEST NOT DUP1 DUP4 AND SWAP2 POP POP SWAP3 SWAP2 POP POP JUMP JUMPDEST PUSH1 0x0 PUSH2 0x1E1E DUP4 DUP4 PUSH2 0x1DF4 JUMP JUMPDEST SWAP2 POP DUP3 PUSH1 0x2 MUL DUP3 OR SWAP1 POP SWAP3 SWAP2 POP POP JUMP JUMPDEST PUSH2 0x1E37 DUP3 PUSH2 0x14E2 JUMP JUMPDEST PUSH8 0xFFFFFFFFFFFFFFFF DUP2 GT ISZERO PUSH2 0x1E50 JUMPI PUSH2 0x1E4F PUSH2 0x1783 JUMP JUMPDEST JUMPDEST PUSH2 0x1E5A DUP3 SLOAD PUSH2 0x1C51 JUMP JUMPDEST PUSH2 0x1E65 DUP3 DUP3 DUP6 PUSH2 0x1DA1 JUMP JUMPDEST PUSH1 0x0 PUSH1 0x20 SWAP1 POP PUSH1 0x1F DUP4 GT PUSH1 0x1 DUP2 EQ PUSH2 0x1E98 JUMPI PUSH1 0x0 DUP5 ISZERO PUSH2 0x1E86 JUMPI DUP3 DUP8 ADD MLOAD SWAP1 POP JUMPDEST PUSH2 0x1E90 DUP6 DUP3 PUSH2 0x1E12 JUMP JUMPDEST DUP7 SSTORE POP PUSH2 0x1EF8 JUMP JUMPDEST PUSH1 0x1F NOT DUP5 AND PUSH2 0x1EA6 DUP7 PUSH2 0x1C82 JUMP JUMPDEST PUSH1 0x0 JUMPDEST DUP3 DUP2 LT ISZERO PUSH2 0x1ECE JUMPI DUP5 DUP10 ADD MLOAD DUP3 SSTORE PUSH1 0x1 DUP3 ADD SWAP2 POP PUSH1 0x20 DUP6 ADD SWAP5 POP PUSH1 0x20 DUP2 ADD SWAP1 POP PUSH2 0x1EA9 JUMP JUMPDEST DUP7 DUP4 LT ISZERO PUSH2 0x1EEB JUMPI DUP5 DUP10 ADD MLOAD PUSH2 0x1EE7 PUSH1 0x1F DUP10 AND DUP3 PUSH2 0x1DF4 JUMP JUMPDEST DUP4 SSTORE POP JUMPDEST PUSH1 0x1 PUSH1 0x2 DUP9 MUL ADD DUP9 SSTORE POP POP POP JUMPDEST POP POP POP POP POP POP JUMP JUMPDEST PUSH1 0x0 PUSH1 0x40 DUP3 ADD SWAP1 POP PUSH2 0x1F15 PUSH1 0x0 DUP4 ADD DUP6 PUSH2 0x14D3 JUMP JUMPDEST DUP2 DUP2 SUB PUSH1 0x20 DUP4 ADD MSTORE PUSH2 0x1F27 DUP2 DUP5 PUSH2 0x1539 JUMP JUMPDEST SWAP1 POP SWAP4 SWAP3 POP POP POP JUMP JUMPDEST PUSH32 0x4E487B7100000000000000000000000000000000000000000000000000000000 PUSH1 0x0 MSTORE PUSH1 0x11 PUSH1 0x4 MSTORE PUSH1 0x24 PUSH1 0x0 REVERT JUMPDEST PUSH1 0x0 PUSH2 0x1F6A DUP3 PUSH2 0x13AD JUMP JUMPDEST SWAP2 POP PUSH32 0xFFFFFFFFFFFFFFFFFFFFFFFFFFFFFFFFFFFFFFFFFFFFFFFFFFFFFFFFFFFFFFFF DUP3 SUB PUSH2 0x1F9C JUMPI PUSH2 0x1F9B PUSH2 0x1F30 JUMP JUMPDEST JUMPDEST PUSH1 0x1 DUP3 ADD SWAP1 POP SWAP2 SWAP1 POP JUMP JUMPDEST PUSH32 0x4E487B7100000000000000000000000000000000000000000000000000000000 PUSH1 0x0 MSTORE PUSH1 0x32 PUSH1 0x4 MSTORE PUSH1 0x24 PUSH1 0x0 REVERT JUMPDEST PUSH32 0x496E76616C6964206170706F696E746D656E7420494400000000000000000000 PUSH1 0x0 DUP3 ADD MSTORE POP JUMP JUMPDEST PUSH1 0x0 PUSH2 0x200C PUSH1 0x16 DUP4 PUSH2 0x14ED JUMP JUMPDEST SWAP2 POP PUSH2 0x2017 DUP3 PUSH2 0x1FD6 JUMP JUMPDEST PUSH1 0x20 DUP3 ADD SWAP1 POP SWAP2 SWAP1 POP JUMP JUMPDEST PUSH1 0x0 PUSH1 0x20 DUP3 ADD SWAP1 POP DUP2 DUP2 SUB PUSH1 0x0 DUP4 ADD MSTORE PUSH2 0x203B DUP2 PUSH2 0x1FFF JUMP JUMPDEST SWAP1 POP SWAP2 SWAP1 POP JUMP JUMPDEST PUSH32 0x446F63746F7220646F6573206E6F742065786973740000000000000000000000 PUSH1 0x0 DUP3 ADD MSTORE POP JUMP JUMPDEST PUSH1 0x0 PUSH2 0x2078 PUSH1 0x15 DUP4 PUSH2 0x14ED JUMP JUMPDEST SWAP2 POP PUSH2 0x2083 DUP3 PUSH2 0x2042 JUMP JUMPDEST PUSH1 0x20 DUP3 ADD SWAP1 POP SWAP2 SWAP1 POP JUMP JUMPDEST PUSH1 0x0 PUSH1 0x20 DUP3 ADD SWAP1 POP DUP2 DUP2 SUB PUSH1 0x0 DUP4 ADD MSTORE PUSH2 0x20A7 DUP2 PUSH2 0x206B JUMP JUMPDEST SWAP1 POP SWAP2 SWAP1 POP JUMP JUMPDEST PUSH1 0x0 PUSH1 0x80 DUP3 ADD SWAP1 POP PUSH2 0x20C3 PUSH1 0x0 DUP4 ADD DUP8 PUSH2 0x15E4 JUMP JUMPDEST PUSH2 0x20D0 PUSH1 0x20 DUP4 ADD DUP7 PUSH2 0x14D3 JUMP JUMPDEST PUSH2 0x20DD PUSH1 0x40 DUP4 ADD DUP6 PUSH2 0x15E4 JUMP JUMPDEST PUSH2 0x20EA PUSH1 0x60 DUP4 ADD DUP5 PUSH2 0x15E4 JUMP JUMPDEST SWAP6 SWAP5 POP POP POP POP POP JUMP INVALID LOG2 PUSH5 0x6970667358 0x22 SLT KECCAK256 PUSH23 0x1AEA8F5A2E425312AF547BD101C9527626AE8638B2730 0xC SWAP15 0x2E SWAP9 0xBD PREVRANDAO 0xAD PUSH22 0x64736F6C634300081B0033446576656C6F7065642069 PUSH15 0x6E6F76617469766520746563686E69 PUSH18 0x75657320696E206F7274686F706564696320 PUSH20 0x7572676572792E5075626C697368656420323020 PUSH19 0x6573656172636820706170657273206F6E206D PUSH6 0x6E74616C2068 PUSH6 0x616C74682E50 PUSH22 0x626C69736865642067726F756E64627265616B696E67 KECCAK256 PUSH19 0x65736561726368206F6E20416C7A6865696D65 PUSH19 0x277320646973656173652E4578706572742069 PUSH15 0x206E6575726F6C6F676963616C2064 PUSH10 0x736F726465727320616E PUSH5 0x206E657572 PUSH16 0x646567656E6572617469766520646973 PUSH6 0x617365732E45 PUSH25 0x7065727420696E206F7274686F706564696320737572676572 PUSH10 0x657320616E6420747265 PUSH2 0x746D PUSH6 0x6E74732E5370 PUSH6 0x6369616C697A PUSH6 0x7320696E206D PUSH6 0x6E74616C2068 PUSH6 0x616C74682061 PUSH15 0x6420636F756E73656C696E672E0000 "},"methodIdentifiers":{"appointmentCount()":"eebc3fb2","appointments(uint256)":"12dc9013","doctors(uint256)":"6efb1b84","getAppointmentStatus(uint256)":"ba173c88","getDoctorAppointments(uint256)":"a00c5127","getPatientAppointments()":"a23ba70b","patients(address)":"0869cfbc","registerPatient(string,string)":"80911fa4","requestAppointment(uint256,string,string,uint256)":"e4c13535","updateAppointmentStatus(uint256,uint8)":"068a423b"}}}}}